:020000040002F8
:1020000078510020152202001D2202001F2202002A
:1020100021220200232202002522020000000000EB
:102020000000000000000000000000002722020065
:1020300029220200000000002B2202002D220200B3
:10204000C52502002F220200B52802002F2202001F
:102050002F2202002F220200712302002F220200F1
:102060002F2202002F2202002F2202002F22020024
:102070002F2202002F2202002F2202002F22020014
:102080002F2202001D2602002F2202002F22020012
:10209000B12602002F220200B52602002F220200E4
:1020A0002F2202002F2202002F2202002F220200E4
:1020B0002F2202002F22020000000000000000007A
:1020C0002F2202002F2202002F2202002F220200C4
:1020D0002F2202002F2202002F2202002F220200B4
:1020E0002F2202002F2202002F22020000000000F7
:1020F000000000002F220200000000002F2202003A
:1021000000000000000000000000000000000000CF
:1021100000000000000000000000000000000000BF
:1021200000000000000000000000000000000000AF
:10213000000000000000000000000000000000009F
:10214000000000000000000000000000000000008F
:10215000000000000000000000000000000000007F
:10216000000000000000000000000000000000006F
:10217000000000000000000000000000000000005F
:10218000000000000000000000000000000000004F
:10219000000000000000000000000000000000003F
:1021A000000000000000000000000000000000002F
:1021B000000000000000000000000000000000001F
:1021C000000000000000000000000000000000000F
:1021D00000000000000000000000000000000000FF
:1021E00000000000000000000000000000000000EF
:1021F00000000000000000000000000000000000DF
:10220000DFF80CD000F0A2F800480047B148020007
:10221000785100200648804706480047FEE7FEE761
:10222000FEE7FEE7FEE7FEE7FEE7FEE7FEE7FEE786
:10223000D9260200012202002DE9F05F05460020A8
:1022400092469B4688460646814640241BE0284627
:1022500041464746224600F068F853465A46C01A9F
:10226000914110D311461846224600F04FF82D1A1E
:1022700067EB01084F4622460120002100F046F896
:1022800017EB00094E41201EA4F10104DFDC484693
:1022900031462A464346BDE8F09F0000004870479B
:1022A000D46B020040EA01039B0703D009E008C990
:1022B000121F08C0042AFAD203E011F8013B00F80B
:1022C000013B521EF9D27047D2B201E000F8012B57
:1022D000491EFBD270470022F6E710B513460A46A6
:1022E00004461946FFF7F0FF204610BD421C10F8C7
:1022F000011B0029FBD1801A7047034611F8012BFE
:1023000000F8012B002AF9D118467047202A04DB77
:10231000203A00FA02F1002070479140C2F12003F8
:1023200020FA03F3194390407047202A04DB203A37
:1023300021FA02F00021704721FA02F3D040C2F1E5
:10234000200291400843194670470000064C074D93
:1023500006E0E06840F0010394E807009847103475
:10236000AC42F6D3FFF750FFE8700200087102009C
:102370002DE9F04F00268FB0DFF8B081B14602960C
:102380004FF48075012437460396284603F0D8F8A9
:1023900038B1D8F80403204203D0284603F0C6F829
:1023A00026432D1D64007F1CADB2082FEDD34FF4E2
:1023B000BE74204603F0C4F848B1204603F0B6F8D6
:1023C00046F0004602AA0221002003F099F8584C7A
:1023D00016F0FF0F15D00127002537420DD008EB6E
:1023E0008501D1F81005D1F81015C0F3052054F877
:1023F0002520C1F3014102B190477F006D1C082DDB
:10240000EBD3002E7DDA0020CDF82890411E0DF18F
:10241000080B08AACDF82C9042F82010401C9146D9
:102420000228F9D300252E46A01910F8607F90F9F4
:10243000000027F0C008401C49D008A9404602F01F
:1024400075FB88B34FEA971A404601F02DFF54F808
:1024500020701FB1BAF1030F03D00FE0BAF1030FE0
:1024600035D10AA84FEAD80208F00703815C4FF083
:10247000010C0CFA03FC41EA0C01815406A8CDF8CA
:10248000188002F0F9FF069900EB8100D0F80007F0
:1024900002A9C0F301400690404602F047FB002825
:1024A000069802D0022802D011E003280FD1BAF119
:1024B000030F08D10698022832D00221404602F0CC
:1024C000B5FF6D1CEDB217B151464046B847761CBA
:1024D000042EA9D3002D20D004AA0221002003F04D
:1024E0000FF800205A4604A952F8206051F8203015
:1024F000B34217D000200AAE4FEA090351F820700A
:1025000000E00AE042F8207056F8207043F820708E
:10251000401C0228F2D3002D84D10FB0BDE8F08F0B
:102520000321CBE7401C0228DED3F6E70060004021
:102530008C2C002000F01F020121914040098000F6
:1025400000F1E020C0F88012704700F01F02012166
:1025500091404009800000F1E020C0F880117047F0
:1025600000F01F02012191404009800000F1E020AD
:10257000C0F80011704700F01F020121914040098E
:10258000800000F1E020C0F80011704700F01F0249
:10259000012191404009800000F1E020C0F80012C4
:1025A00070474907090E002806DA00F00F0000F115
:1025B000E02080F8141D704700F1E02080F800143E
:1025C000704700002DE9F0414FF48077384602F063
:1025D00029FB0124104EA50748B1384602F029FB1B
:1025E0000120C5F808037470002001F065FE4FF467
:1025F0008277384602F016FB00280BD0384602F0EE
:1026000018FB0220C5F80803B470BDE8F0410120B2
:1026100001F052BEBDE8F081782C0020074800216F
:10262000C0F84011C0F84411C0F84811C0F84C116E
:10263000C0F80011C0F8041103F0EEBE0010014014
:1026400003480078002801D100F042B9704700002B
:102650000031002070B50E46144900EB400001EB3C
:10266000C0051446E86A183520B101280FD00228A9
:1026700005D113E0284600F05FF9A04201D2002402
:1026800011E022463146284600F08EF90BE028463C
:1026900000F052F9A042F4D20446F2E7314628464F
:1026A00000F055F90446204670BD000000310020BE
:1026B00003F000BE074810B5406830B180470028DD
:1026C00007D0BDE8104000F0D3BDBDE8104001F0D8
:1026D000BFBF10BD5827002030B54FF080500022FA
:1026E0008300D0F83011C3F80C21C3F81021624BDD
:1026F0001A60624B1B68624C2360604B1B1D1B6899
:10270000241D23605D4B08331B68241D23605B4B35
:102710000C331B68241D2360584B10331B68241D89
:102720002360564B14331B68241D2360534B18330E
:102730001B68534C20342360504B1C331B68241DF2
:1027400023604E4B20331B68241D23604B4B2433E6
:102750001B68241D2360494B28331B68241D2360FC
:10276000464B2C331B68241D2360444B30331B68BD
:10277000434C40342360414B34331B68241D236099
:102780003E4B38331B68241D23603C4B3C331B6895
:10279000241D2360394B40331B68241D2360012412
:1027A000082902D1D0F8343113B1082904D006E049
:1027B000354B3449196005E0D0F8343113B108299C
:1027C00004D006E0314BFB21196005E0D0F834312C
:1027D00013B1082908D00EE090F858322C4801684F
:1027E00063F30301016002E0D0F834311BB92949D9
:1027F0004FF40070086028480168C90702D06FF0E4
:10280000010101602548016841F470010160BFF3D6
:102810004F8FBFF36F8F4FF01021D1F800020028C7
:1028200003DBD1F80402002822DA1D4B1C601D488E
:102830000468002CFCD01224C1F800420568002D69
:10284000FCD0C1F8044201680029FCD01A6001687C
:102850000029FCD0BFF34F8F10487C380168124A22
:1028600001F4E06111430160BFF34F8F00BFFDE74A
:102870000F490E48086030BD3805004004040010C0
:1028800020C50040488103008C56004018F50040E8
:10289000E40E0040409602400004004088ED00E055
:1028A00004E5014000E401400400FA050090D00373
:1028B0006C2700200448017F04480029024901D008
:1028C00003F0C3BF03F032BFF42C0020002000400F
:1028D00010B5124C02202061606111A0A061A4F526
:1028E0000470E0614FF4007020620020A06260621A
:1028F0000BA1A164E062A4F11001E1641021216543
:10290000A0656065E06509A1E01DFFF7F6FC08A180
:102910002046FFF7F2FC2020A07110BD00310020FE
:102920005465726D696E616C000000005254540071
:1029300053454747455200000269C1688A4203D89F
:102940008068401A104400E0501A401E70472DE97C
:10295000F047C4681746894606464FF000083069BC
:10296000A04201D9051B02E0B168201A0D1AB06817
:102970006D1E001BA84200D80546BD4200D33D464F
:1029800070682A4620444946FFF78CFCB0687F1BDC
:102990002C44A844A944A04200D10024F460002F94
:1029A000DDD14046BDE8F0872DE9F041C668044618
:1029B000174688468068851B6068BD4206D930444A
:1029C000FFF770FCF019E060BDE8F0812A46304462
:1029D000FFF768FC7E1B08EB050132466068FFF7D5
:1029E00061FCE660F0E700000FB4054B10B503A9E9
:1029F000044A029800F042F810BC5DF814FB000095
:102A00003B450200502700200FB41CB502460020B1
:102A100007AC00290BD0491ECDE90021054B6A46C1
:102A20002146069800F02AF8009A002111701CBC7B
:102A30005DF814FBDF2E020002E008C8121F08C177
:102A4000002AFAD170477047002001E001C1121F2F
:102A5000002AFBD1704700000121202803DA8140C1
:102A60000548014003E0402802DA2038814009B1DE
:102A70000120704700207047FC06FFBD2DE9FF4F85
:102A80008DB00F460546002606E025280BD0DDE96F
:102A90000F1290476D1C761C28780028F5D111B0D4
:102AA0003046BDE8F08F0024A246A1460122EC4941
:102AB00000E0044315F8013F203B02FA03F008420E
:102AC000F7D128782A2810D06FF02F022878A0F1AB
:102AD0003001092914D80AEB8A0102EB410144F0C4
:102AE000020400EB010A6D1CF0E701CF5FEA000A67
:102AF00003D544F40054CAF1000A44F002046D1CEA
:102B000028782E2817D115F8010F44F004042A283C
:102B10000ED06FF02F022878A0F1300109290AD8D1
:102B200009EB890102EB410100EB01096D1CF2E7A1
:102B300057F8049B6D1C28786C280FD006DC4C28B5
:102B400017D068280DD06A2814D104E0742810D05A
:102B50007A280FD10DE044F400140AE044F4801404
:102B600001E044F440146978814202D104F58014F4
:102B70006D1C6D1C2A786E2A1FD00CDC632A31D0A4
:102B800004DC002A8BD0582A11D1A3E0642A68D033
:102B9000692A0CD165E0732A2ED004DC6F2A73D029
:102BA000702A04D19BE0752A6FD0782A6ED0104627
:102BB000DDE90F129047761C50E1C4F30250022861
:102BC00006D0032809D0042801CF09D0066045E1CA
:102BD00001CFF117C0E9006140E101CF06803DE17E
:102BE00006703BE117F8040B8DF8000000208DF80B
:102BF0000100EB46012003E057F804BB4FF0FF3023
:102C000061074FF0000102D40DE008F10101884690
:102C100049450FDA8045F8DB1BF808100029F4D18C
:102C200008E008F1010188468142FADB1BF8081030
:102C30000029F6D1DDE90F23AAEB080081462146E1
:102C400000F036F9304400EB080604E0DDE90F122D
:102C50001BF8010B9047B8F10108F7D2214648460E
:102C6000F7E00A21C4F302534FF0000B0891022B46
:102C700004D001CFC117032B09D00AE0FF1D27F0B4
:102C80000707F7E8020108E032E01FE020E000B2A9
:102C9000C117042B01D140B2C117031E71F100030B
:102CA00007DA4FF0000CD0EB0C006CEB01012D2388
:102CB00002E0230504D52B238DF82430012303E003
:102CC000E30701D02023F7E7984658E00A2110E0F7
:102CD00010210EE010204FF0000B08900CE01021A6
:102CE0004FF0000B44F004044FF00809089103E092
:102CF00008214FF0000B0891C4F30253022B04D0BB
:102D000001CF0021032B06D006E0FF1D27F00707A7
:102D1000F7E8020103E080B2042B00D1C0B24FF00B
:102D2000000823072BD5702A07D0DDF820C08CF0CF
:102D3000100C5CEA0B0C05D00EE040238DF824301B
:102D4000012308E050EA010306D030238DF8243037
:102D50008DF8252002239846DDF820C08CF0080C61
:102D60005CEA0B0C0BD150EA010301D1630706D5D5
:102D700030238DF824304FF00108A9F10109582AB9
:102D800004D038A20B9208AA0A920BE03AA2F9E703
:102D90005B46089AFFF750FA0B9B9B5C0A9A521EFF
:102DA0000A92137050EA0102F2D10A98ADEB0000CA
:102DB00000F1200B600702D524F4803401E04FF0CD
:102DC0000109D94502DDA9EB0B0000E0002000EB72
:102DD0000B0141440890AAEB010AE00306D4DDE9A7
:102DE0000F232146504600F063F806444FF00009D7
:102DF00008E009A911F80900DDE90F12904709F16F
:102E00000109761CC145F4DBE0030CD5DDE90F2395
:102E10002146504600F04CF8064404E0DDE90F126C
:102E200030209047761C0899481E08900029F5DC50
:102E300008E00A980A990078491C0A91DDE90F1206
:102E40009047761CBBF10001ABF1010BF1DC214690
:102E50005046DDE90F2300F019F806446D1C1BE60F
:102E60000928010030313233343536373839616260
:102E70006364656600000000303132333435363724
:102E80003839414243444546000000002DE9F041F5
:102E9000044600251E461746880404D405E039463A
:102EA0002020B0476D1C641EF9D52846BDE8F0818E
:102EB0002DE9F041044600251E469046C80301D581
:102EC000302700E02027880404D505E04146384635
:102ED000B0476D1C641EF9D52846BDE8F0814A68EC
:102EE000002A06D00A68531C0B6010704868401E08
:102EF000486070472DE9FC47002517880646158075
:102F000090F82D001446894630B13A46214648468D
:102F100000F09CFD050009D1B0784FF00C0A18B301
:102F20002088C846001DB84202D95046BDE8FC873B
:102F3000684679DF0028F9D12088032108F80010BD
:102F400020881921401C80B2208008F800102088B9
:102F5000401C80B2208000EB0801BDF8000003F0A7
:102F6000ECFC218808442080F0780222C8B1218836
:102F700096F9033001F1030C4846BC45D5D84254BC
:102F800021884FF0010C491C89B2218000F801C052
:102F90002188491C89B2218009F801302088401C11
:102FA00020807068B8B1218890F9003001F1030CDD
:102FB0004846BC45B9D8425421880A22491C89B2E6
:102FC000218042542188491C89B2218009F80130AE
:102FD0002088401C2080308950B1CDE900474B4605
:102FE0000622022106F1080003F0F4FC05009DD141
:102FF000308A50B1CDE900474B460722032106F144
:10300000100003F0E7FC050090D1308B50B1CDE902
:1030100000474B461522142106F1180003F0DAFC94
:10302000050083D1306A30B13B462246494601F063
:10303000ADF90500DBD1706A30B13B462246494606
:1030400001F0F4FC0500D2D196F82C0038B13B46D3
:1030500022464946304602F0B5FF0500C7D1307818
:1030600038B13B4622464946304601F011FD050085
:10307000BDD128465AE70000134A0021535C0BB12A
:10308000012203E0491C0629F8D300220F49012838
:1030900006D0022809D003280CD0042812D10DE054
:1030A000487810B10AB101207047887810B10AB190
:1030B00002207047C87808B103207047087908B12A
:1030C0000420704700207047FD260020882B002038
:1030D00010B501220221002000F04AFF08B10728A4
:1030E00010D107220221012000F042FF08B1072879
:1030F00008D100210A22084600F03AFF08B107284B
:1031000000D1002010BD000030B5A7B03C2101A8BF
:10311000FFF7E1F802208DF8040000248DF8064046
:1031200005208DF807003C2110A8FFF7D4F80F48C0
:1031300001251590ADF8505020211FA8FFF7CBF8BE
:10314000402023908DF87F50B4202490084B1FAA74
:1031500010A9009401A800F0ADFA08B100F088F8B9
:10316000012000F0A1FA27B030BD0000C6260020E3
:1031700025590200022000F0B7BD000070B5002400
:10318000064D06E06868012110F8340001F000FEE9
:10319000641C28788442F5D3002070BD18270020D5
:1031A000F8B515460C460646052A01D20720F8BD9B
:1031B00001F0D0FE18B901F09FFE0028F7D11049A8
:1031C00000204E600C70C1E902500E4D08610DE008
:1031D00006EBC4006968009181788DF801100078D1
:1031E000094A694601F020FE0028E0D1641EE4B2DD
:1031F000EED2BDE8F840054A0021024800F06CB864
:1032000018270020286B0200F945020075440200CF
:103210000AA1012002F0EEFA0CA1032002F0EAFA62
:10322000BFF34F8F10480168104A01F4E061114369
:103230000160BFF34F8F00BFFDE700003A455252D7
:103240004F523A466174616C0D0A00003A494E468D
:103250004F3A486974207765616B2068616E646CD1
:1032600065720D0A000000000CED00E00400FA0594
:103270000EB500210091CDE901106A4644F201002B
:10328000FFF7C6FF0EBD10B58268C368934203D036
:1032900001F040F9002010BD052010BD29B112B188
:1032A000531E134203D0092070470E20704701605F
:1032B000838000218160C1600846704710B5826834
:1032C000C3689A1A83889A4203D801F02DF9002026
:1032D00010BD042010BD0000074B9B7823B12AB11C
:1032E00020B10068037C1BB108207047072070479D
:1032F0004174426100207047342D002070B502F007
:103300006DFD104800240B21047044700E4D817037
:1033100014206C602C706C70FFF70CF907211420DE
:10332000FFF73FF91420FFF71BF908480460072155
:103330001120FFF736F90548001F0068A86000203B
:1033400070BD0000342D00202C27002008150140FE
:103350002DE9FC47DFF8789099F8023073B368B331
:10336000052902D20720BDE8FC87436933B3437CBB
:10337000012B25D0002704460025884616468DF8E7
:103380000050684600F0CAF801A803F00BFBC8B172
:10339000012101700F4944600968C0E90218C0E9C1
:1033A00004769DF8040089F801009DF8000000F003
:1033B000D9F81420FFF7EAF82846D4E70820D2E726
:1033C0000F46D8E704259DF8000000F0CBF8F3E79E
:1033D000342D0020041501400649897839B130B1F7
:1033E000416921B100210174022102F0F1BF0820DE
:1033F00070470000342D002070B50A4E01460A487F
:10340000B578FFF740FF04464DB10020B070711C45
:103410000122C81D01F0E4FD08B1FFF729FF204695
:1034200070BD000040270020402E0020F0B5284E3F
:1034300089B01F460D00044672603BD0A8882968F9
:1034400082B22448FFF72AFF002834D1A889A9684E
:1034500082B220481030FFF721FF00282BD1202214
:103460001D496846FEF71EFF60690690207C00B18A
:1034700001208DF814008DF81C70607C00B10E20C6
:103480008DF81500E0680290A06803902068019014
:10349000606800900E48114A6946083001F06CFDE2
:1034A000002808D1B0702068401C04D09DF81D0091
:1034B00018B106E0072009B0F0BD0548083001F05A
:1034C000E7FD03490122491CC81D01F089FDF2E70F
:1034D00040270020402E0020306B02008D66020045
:1034E00010B501460B48FFF7E9FE040010D10A4869
:1034F00001F018FF60B9084906480839FFF7C3FE14
:1035000030B9054901220839034801F085FE044617
:10351000204610BD502E00204827002030B5EFF384
:10352000108172B60D4A9468012324B103700029FA
:1035300000D162B630BD93604FF0E023D3F88051E4
:10354000074C25401560C3F88041D3F8844154608E
:103550005A17C3F8842100220270E8E7602E002089
:10356000FC06FFBD0B498A68002A11D000280FD144
:10357000EFF3108072B60B684FF0E022C2F8003112
:103580004B68C2F8043100228A60002800D162B67C
:1035900070470000602E002070B5054608680C4694
:1035A000411C04D001F08FFF206801F01BFF606810
:1035B000411C02D0002101F00CFF28791F4901EBCA
:1035C00040102968007F0028A069C1F8240523D095
:1035D000607D227D29681043C1F86C05D4E9001292
:1035E0002868C0F80C15C0F8142522E0A068411C1A
:1035F00002D0002101F0EDFEE068411C04D001F092
:1036000062FFE06801F0EEFED4E902122868C0F81B
:103610000825C0F8101570BD607D217D2A6808431B
:10362000C2F86C05D4E900122868C0F81425C0F867
:103630000C15207D0128D9D070BD0000F42C00208D
:10364000F0B50C4693B01F210726ADF80010ADF879
:103650000410002750B1C17849070DD56A4602A968
:10366000FFF748FC002808D102AD02E00025ADF8C4
:1036700000706CB1E07810B1304613B0F0BD01AA13
:103680000AA92046FFF736FC0028F6D10AAA02E074
:103690000022ADF80470BDF80400C3B2BDF800000C
:1036A000C1B2284672DFE8E701490871704700009F
:1036B000E42600202DE9F0471F46DDF82080134660
:1036C0008946040043D0EBB3404D0120002628700A
:1036D000EE70202219463E48FEF7E4FD2E71C5E942
:1036E00004784FF6FF706881AE613948AE83AE77DB
:1036F0003C212030FEF7EFFD354821782030017065
:10370000A1788170E178C170617841703049D4E965
:103710000423C1E90C23D4E90223C1E90A23D4E933
:103720000623C1E90E23616AE1B100F13C0100F119
:10373000480241628A60636A1B880B80616A436A3F
:10374000898800E003E099800021436A07E00E20A9
:10375000BDE8F087656AAD686D5C5554491C9D886D
:103760008D42F7D8A16AD9B1194A9432A2F10C015D
:103770008A608162A36A9B888B80A16A836A0988B8
:1037800019800021836A04E0A56AAD686D5C555418
:10379000491C9D888D42F7D894F82C1080F82C1085
:1037A000216A49B109490C310162226A52884A8072
:1037B000216A026A09881180616801B14160494645
:1037C000BDE8F04702482030FFF73ABFE42600206A
:1037D000882B002010B50188144C102918D011290D
:1037E0001CD01B2919D1007A002816D1E0780521B8
:1037F000401CB0FBF1F201FB120000BF00F036F8F4
:1038000000280AD06169002907D0BDE810400847A8
:10381000C17B012901D18088608110BD0021A17187
:10382000808861898842F8D10120E7E7E4260020FA
:1038300010B574DF0B4C01200B49A07100202072E1
:103840000620C87000210848FFF7FAFE002807D1BB
:10385000E07800F00BF810B1616901B188470020F1
:1038600010BD0000E4260020A82B00202DE9F04127
:103870003D4C804686B0207848B184F8038004A887
:1038800000F062FE0498012628B1667068E0082006
:1038900006B0BDE8F0810025A561344FA583A5776A
:1038A000787810B1E078012806D0B87858B1E0787F
:1038B000012801D0022806D1216919B166710820BA
:1038C000884700E065714046FFF7D6FBE07021694C
:1038D00039B1032801D0042803D1387808B1A07980
:1038E00090B1E57100950295019503958DF8005012
:1038F0008DF808501C48E1781830052925D2DFE8FA
:1039000001F03108111D21002572E671072088475A
:10391000E8E7A67001908DF80060ADF80C50ADF8A6
:103920000A5014E00221A17001908DF80060B8895E
:10393000ADF80C003889ADF80A0008E0684602F0DE
:1039400085FB02E0684602F0A5FBE07820B1217912
:10395000684673DF00289BD1216909B1A0788847A8
:10396000002095E7A570F7E7E4260020882B0020CB
:1039700070B5054601461C220F48FEF793FC0F4C1C
:1039800000262670286830B1016861604068A06038
:10399000201D7ADF02E00948001D7BDF00280AD1E4
:1039A0004FF6FF7060806670BDE87040044A0021E9
:1039B0000448FFF791BC70BD5C2C00200427002058
:1039C00045690200F46A020070B51E4C06880023A7
:1039D0001B49E289102E15D01B4D112E1CD0122E22
:1039E00029D0502E17D130F8061F914213D14189AA
:1039F000022910D10C3000F0FAF888B1BDE870400F
:103A000000F00ABD84884C800469CC60406908617C
:103A10004B70002AF2D070BD4FF6FF7048804B709B
:103A20002868FFF7D9FC0028F5D0A1690029F2D059
:103A3000BDE8704008478268CA60C0680861DDE779
:103A4000042700205C2C0020F46A02007CB50546A7
:103A500008880C460930904201D90C207CBD68468C
:103A60006DDF0028FAD121880820685420881B21A6
:103A7000401C80B2208029542088401C80B22080C5
:103A80002844DDF801100160BDF805108180208810
:103A9000801D80B220809DF80010490800D00121CF
:103AA00029542088401C208000207CBD10B504468D
:103AB000FFF78AFF2146094801F062F807482146CE
:103AC0001C3800F03FF8204601F03EFF2046FFF78B
:103AD00081FE2046BDE8104000F096B9002B002082
:103AE00030B5174B0D4604000FCB85B08DE80F00A5
:103AF00023D015B34FF6FF70A0822868A061002084
:103B0000A0752146684662DF002814D120788DF820
:103B100012000120ADF81000A21C04A9A0DF0028AB
:103B200009D12946204602F090F9002803D1294600
:103B3000204602F0D5FC05B030BD0E20FBE70000AA
:103B4000106B020010B5002822D0002920D00A886E
:103B5000102A18D0112A18D0502A19D104468A1DCB
:103B6000C88823891231984202D15389022B10D080
:103B7000A38998420CD1A369002B09D05289204611
:103B8000BDE810401847898801E04FF6FF71818237
:103B900010BD084600F02BF800B10120A07510BD43
:103BA00007B584B068B1828AA2F57F43FF3B0AD093
:103BB000827D42B1BDF818209B2A06D9072007B0A4
:103BC00000BD0E20FBE70820F9E7002200920192D9
:103BD000029203928288039106A90291ADF8002017
:103BE00001218DF80210808A6946A6DFE7E7007898
:103BF00000F001007047000030B52B4885B000236D
:103C000000680490D822294904A802F01BFB08B1DF
:103C1000FFF72EFB00246846009402F071FA08B109
:103C2000FFF726FB012501948DF804508DF805401F
:103C3000029403948DF8064001A94020009A69DFA0
:103C400008B1FFF715FB01948DF804509E20ADF8E4
:103C500006000294039401A92320009A69DF08B1A9
:103C6000FFF706FB019402944FF4A0708DF8045006
:103C7000ADF8080003948DF8065001A92020009AA1
:103C800069DF08B1FFF7F4FA684602F04DFA08B1AF
:103C9000FFF7EEFA064802F03DFA002801D0FFF7E0
:103CA000E7FA05B030BD0000A46A020070270020CA
:103CB000AD3A02000149085C70470000C46A020086
:103CC000084908B5085C0090684601F0C7FBD0F8C9
:103CD00010050099C84010F0010000D0012080F0CC
:103CE000010008BDC46A0200094908B5085C0090DB
:103CF000684601F0B3FBD0F80425009B01219940F0
:103D000021EA0203C0F808351140C0F80C1508BDBF
:103D1000C06A02000249085C012101F0DEBB00001C
:103D2000C06A02000249085C002101F0D6BB000015
:103D3000C06A0200084908B5085C0090684601F0B6
:103D40008DFBD0F804050099C84010F0010000D0A8
:103D5000012080F0010008BDC06A02007CB500248B
:103D6000084E25460122305D00950023114601953D
:103D700001F0E4FA641C042CF4D3BDE87C4000F0AC
:103D800003B80000C06A020010B500242046FFF707
:103D9000C1FF641C042CF9D310BD10B500242046CB
:103DA000FFF7C0FF641C042CF9D310BD10B5024608
:103DB000064B4FF0FF3000215C5C944201D1084675
:103DC00010BD491C0429F7D310BD0000C46A0200CD
:103DD00070B50C4E0C004FF0000530600BD0012088
:103DE00000F0A2F808B1022004E0002000F09CF8E6
:103DF00000B10B202070706810B9FFF769F9054613
:103E0000284670BDDC26002010B51A4C0188606879
:103E100010290ED011292BD1401E606028D1FFF748
:103E200057F9002824D02168002921D0BDE810408E
:103E30000847D0B900210122084600F099F808B1DE
:103E400007280FD107220221012000F091F808B1C4
:103E5000072807D104220221002000F089F820B1B0
:103E6000072802D0216801B188476068401C606063
:103E700010BD0000DC26002010B5002000F0CCF9B9
:103E800008B1062806D1012000F0C6F908B10628BD
:103E900000D1002010BD00002DE9F0470D468146FD
:103EA000FFF784FF0446042836D2DFF874801B48ED
:103EB0001C4EA8F10C0725B3012D0ED0022D2BD1DD
:103EC00004EB440030444578002D25D0B968002922
:103ED00022D02846BDE8F047084704EB4401755C52
:103EE0000E44717849B10E4A4FF40041093A806896
:103EF000FFF72EFA08B987F80390B17808F8041094
:103F0000E2E78068FFF768FA04EB4401314418F8EF
:103F100004008D78A842D7D0BDE8F087C86A0200B7
:103F2000D82600205C2B0020FFF7CABE01460F48B0
:103F300010B54088042907D007290ED00A2914D1CA
:103F4000BDE8104002F0C8B8132176DF0BE000286E
:103F50000BD0BDE81040FFF78BB9A0F57F41FF39CA
:103F600003D1FFF765FC0828F1D110BDC026002061
:103F700070B50023042810D20D4D00EB4004012A37
:103F800002D101290CD00022094E00EB4000304440
:103F900061B1012906D0022906D00723184670BD59
:103FA0000E30C2B22A55F9E74270F7E78270F5E7A2
:103FB0005C2B0020044A014600201279D20702D06F
:103FC000084600F04DB87047CC26002070B5064674
:103FD0001E480024C0E90161B00720D50025012258
:103FE00011462846FFF7C4FF6D1C0446042D02D27B
:103FF000002CF4D013E094B940F266620421144816
:10400000FFF7CEF804000AD1FFF7B8F8040006D194
:104010000F48104A0021001FFFF75EF90446F00721
:1040200001D0FFF79BFE74B909480B4A00210C38F8
:10403000FFF752F9040006D10548084A0121083863
:10404000FFF74AF90446204670BD0000CC26002048
:10405000D46A02003B4202008D4702007531020023
:104060002DE9F05F6A4C054600266078B34618B12A
:1040700084F801B000F072FB664F4FF47A694FF498
:10408000C87A4FF00108182D62D2DFE805F0AC0CB9
:104090000C31404D62676B746B74BE7D7D7D7D7DA0
:1040A000ACAFB2B5BEBE0020FFF744FE00284FF013
:1040B000000008D0FFF72EFE022D02D14FF4E16080
:1040C00008E0484606E0FFF72DFE022D01D1C8208A
:1040D00000E05046410CC0034FF4FA72801841F1E1
:1040E0000001257052000023FEF7A6F801462AE0E1
:1040F0000020FFF71FFE00284FF0000004D0FFF75C
:1041000009FE4FF44870E5E7FFF70CFEDFE70020FB
:10411000FFF710FE00284FF0000002D0FFF7FAFD75
:10412000CFE7FFF7FFFDD4E70020FFF703FE0028ED
:104130004FF0000002D0FFF7EDFD01E0FFF7F2FDC8
:10414000257041F69A1100223868FFF701F90646FA
:1041500046E00020FFF7C8FD257008E0002051E090
:1041600025703DE084F801800120FFF7BDFD0022AD
:1041700040F6CD41E8E784F801800120FFF7B4FD67
:1041800000224FF48041DFE77868FFF725F9064603
:10419000D5F1110000D02EB10220FFF7BBFD84F84D
:1041A00002B01DE0012816D980B2C8214843C117CA
:1041B000C90341EA5041C0034FF4FA72801841F13B
:1041C000000152000023FEF737F80146002278680C
:1041D000FFF7BEF806460220FFF7A4FD84F8028030
:1041E0003046BDE8F09F00F0B9FAB9E700F0B6FA42
:1041F000B4E700F0B3FA04E000F0B0FA0020FFF7F3
:1042000091FD0120FFF78EFDAAE7FFF7C6FDA7E7A6
:10421000CC260020C86A020010B5FFF74BFD032131
:1042200001F0EAF8002010BD002901DA00207047F3
:104230000268114401600120704700780221FFF7F5
:104240002BBE000005494FF0FF32082841F820201E
:1042500002D3084480F85820704700008C2C0020BE
:10426000F0B54FF0FF3512B10023082601E0082316
:104270000C260C4C05E000BF54F823707F1C04D0C2
:104280005B1CB342F8D32846F0BD26185DB286F811
:10429000305044F82310002AF5D1E11881F8580075
:1042A000F1E700008C2C00200249084490F930000E
:1042B000704700008C2C002070B5084C050009D018
:1042C00010342168002907D0086820604968284612
:1042D0008847F6E70834F4E770BD0000782C00202A
:1042E0002DE9F05F26484168F1B3DFF898B00E6819
:1042F0008146DBF8004087688078E11B21F07F452C
:10430000ED1CB0B9DFF880804FF48030C8F844036A
:10431000C8F804031120FEF70DF91120FEF720F96B
:104320004FF0010AC8F800A02F2000F08BFC89F89C
:1043300002A0B54200D23546124BE8193C3320F0BA
:104340007F401860DBF800105A46091B21F07F41BE
:10435000001B20F07F40C91C81420FD910681860F3
:104360002F2000F06FFC00E004E0BDE8F05F1120BA
:10437000FEF70CB9BDE8F05F01F030BDBDE8F09F7D
:104380002C27002004150140001001402DE9F041C8
:1043900017880646B81D14460D46984202D90C20CF
:1043A000BDE8F0813188072206290AD34FF4486C12
:1043B0004FF6FF73614501D9994202D170880628F2
:1043C00001D21046ECE7604501D99842F9D19942F3
:1043D00003D0984201D08142F3D80520E8552088C7
:1043E0001221401C80B2208029542088401C80B2B9
:1043F00020804119308802F0A0FA2188084480B258
:1044000020804119708802F098FA218808442080A1
:104410000020C5E7FEF72CBFF8B5134800F090F96F
:10442000114D0026114C0C3D30B16169B9B101202C
:104430008DF80000684611E0287820B1616971B1FB
:104440008DF80060F6E7687858B1A1680848002246
:104450000068FEF77DFF10B1A16901B188472E7099
:10446000F8BD6168F2E70000102700205C2C0020F6
:10447000F46A02002DE9F04100260125144C22E0E7
:104480006068226900EBC607387805FA00F111422E
:1044900017D08A43226100F027FD02463878E3688E
:1044A00005FA00F1194002FA00F3994209D179782E
:1044B000012901D0012100E0002151407A6802B1B8
:1044C0009047761CF6B220788642D9D3BDE8F081B9
:1044D000182700200E4910B50A784C780023A24214
:1044E00012D0521CD2B20A70022A00D10B70084AB4
:1044F0000B780C3252F8232002608868104420F0B8
:104500007F408860012010BD0360002010BD0000C6
:104510002C270020826883881A4003689A5C0A70FE
:104520008168491C81607047C26883881A400368AB
:104530009954C168491CC160704710B50446C0B2A7
:10454000FEF7CEFF204610BD20B10349496E016041
:1045500000207047032070476C2E002010B50446E1
:104560000D484A8843889A420DD10A88A2F52063F3
:10457000773B08D18988C91E8AB28280134607A179
:10458000032001F042F923886288BDE810400D49FC
:10459000042001F03AB90000C02600204150503AF2
:1045A000494E464F3A44617461206C656E206973D0
:1045B0002073657420746F2030782558282564296D
:1045C0000D0A0000D86B020010B50949094800F037
:1045D000C1FA08B1FEF74CFE4021064800F0AEFAE1
:1045E000002803D0BDE81040FEF742BE10BD000019
:1045F0005D450200002B00202DE9F041124E0746D8
:104600000125BD403068FEF7E7FE00280DD10F4CB4
:104610002069284207D1384600F066FC0028E0688F
:1046200005D0284304E0A8432061BDE8F081A843F9
:10463000E060206928432061A1683068BDE8F0414E
:104640000022FEF785BE0000286B0200182700201C
:10465000F8B51C4C2078002832D02069002658B1CB
:104660000025607800282BD1684648DF052805D052
:1046700030B1FEF7FDFD0AE00125F2E7012606E074
:10468000009800F061FBA16809B1009888479DB9C6
:104690006078002814D16088ADF800006946E068B1
:1046A00061DF052803D020B1FEF7E2FD04E001251B
:1046B00002E0D4E903018847002ED2D0002DE6D0D5
:1046C000F8BD00005827002070B50E46044600795A
:1046D00018494FF4A27501EB4010017F2068A1B189
:1046E0004FF4887101F0CFF84FF49071206801F019
:1046F000CAF84FF49271206801F0C5F82946206885
:1047000001F0C1F80C49206809E04FF48E7101F006
:10471000A9F82946206801F0A5F808492068C0F8E2
:104720000413206800F031FB3146BDE8704000F012
:1047300010BB0000F42C00201003020080000200D7
:10474000054940880A88904204D34988884201D8A4
:104750000120704700207047082700200A4810B544
:10476000807860B1002401E0022C06D02046FFF7DB
:10477000D1FA641C042CF7D310BD0324F6E7BDE87E
:104780001040FFF701BB0000CC2600200348017950
:10479000C90702D00078FFF763BC7047CC26002021
:1047A0009E21018017214180002101714171A221C8
:1047B00081711B21C17170472DE9F047394E0027E7
:1047C00080463D46DFF8E090D6F804A057E003D0DD
:1047D0000446D0F81C8035E099F8002002EB420135
:1047E000521CD2B289F8002009EBC10199F80230BD
:1047F000091D9A4201D189F8005048680A78044698
:10480000012A12D0022A02D0032A3BD108E001F08B
:10481000AFFD00B10127257434E00574C06900E0E4
:1048200070680028F9D170602CE0207C50BB88684B
:104830006060C868A0600869E0604869A061F078BD
:1048400000B165606268B168184B501A20F07F4073
:10485000984202D2A168084406E0881AA16820F0B4
:104860007F40814202D9081A206000E0256065601F
:104870000120A56020742046E56101F05BFDB8F1E0
:104880000000A4D199F8001099F801008142A3D149
:1048900017B97168514502D00120BDE8F0870020AA
:1048A000FBE700002C270020342D0020FFFF7F00B5
:1048B0008AB0FEF723FD08B1FEF7DAFC182245495D
:1048C0006846FDF7EFFC4448069044494FF4807079
:1048D000CDE9070109900723414A06A96846FEF77A
:1048E000A5FD08B1FEF7C4FC002000F0A5FF08B14B
:1048F000FEF7BEFC3B490320FFF768FB08B1FEF75B
:10490000B7FC69460020FFF763FA08B1FEF7B0FC78
:10491000FFF772F99DF8080033A120F00F00401C4A
:1049200020F0F00010308DF808000B2202A87CDF88
:1049300008B1FEF79DFC002400941020ADF80000A3
:104940003C200194ADF80200ADF804404FF4C8706B
:10495000ADF8060068467ADF08B1FEF789FCFFF77C
:1049600033FE2448009069462348FFF7B9F808B1A0
:10497000FEF77EFCFEF7C8FB1C216846FDF7ABFC8A
:104980004FF42030CDE900404FF470200290032016
:104990008DF80C001948059019480690ADF80E40A6
:1049A0008DF810406846FEF7E3FF08B1FEF760FCA3
:1049B00014A0FEF719F817A1032000F01BFF032035
:1049C000FEF754FF00E03EDF0028FCD0FEF750FC6D
:1049D000F9E70000A86A0200E3280020E32900208C
:1049E000D96502002D3F02004E6F726469635F5506
:1049F0004152540095580200E42A0020795A0200DE
:104A0000154402000D0A55415254205374617274CA
:104A1000210D0A004150503A494E464F3A554152F5
:104A200054205374617274210D0A000070B514464D
:104A300082880E4605462088111D0144921C994229
:104A400001D8FE2A01D90C2070BD521C3254208896
:104A5000FF21401C80B2208031542088401C80B24D
:104A600020808119288801F068FF2188084480B2DD
:104A70002080AA8842B1A96841B13044FDF712FCF8
:104A80002088A98808442080002070BD072070BDC0
:104A9000F8B50E46017814460546012901D168781B
:104AA00030B12088821C9A422DD8012902D006E01C
:104AB0000720F8BD69780144891C994223D8181A47
:104AC000801E87B2ADF800702188B01C084469468A
:104AD0007DDF0028EDD12878022805D1BDF800102F
:104AE000B94201D809210AE00821012805D16878D6
:104AF000B84202D8ADF8000001E0ADF80070BDF892
:104B00000000FE2801D90C20F8BD2288401CB054BA
:104B10002088401C80B2208031542088401C208096
:104B2000BDF80010084420800020F8BDC20800F045
:104B300007030120895C98400840704728B1A1F123
:104B40001702882A03D3072070470E207047018080
:104B50000020704770B5040010D09E20A161208015
:104B60006080A2202071002504EBC500801DFFF7A6
:104B700017FE6D1C022DF7D3002070BD0E2070BDF6
:104B800070B58C880546022C46D2088823281ED092
:104B900006DC102809D011280BD022281ED11AE0DB
:104BA0003A280CD0552819D10DE0284600F072FFA4
:104BB00014E005EBC400801DFFF7F2FD0EE028466F
:104BC00001F0C4F80AE0284601F07AF806E0284629
:104BD00000F0B6FF02E0284601F046F805EBC405F8
:104BE000A87A002818D0E98820469EDF020007D066
:104BF000112A11D0BDE870400849012000F0FEBD27
:104C00000020A8720120E872EA882346BDE87040BF
:104C10000349042000F0F9BD70BD0000706D020072
:104C2000706C020000F180400068002800D0012074
:104C3000704708B500F180400021016000680090D5
:104C400008BD000000283ED01F49204A096800BF67
:104C500000BF00BF00BF00BF00BF00BF00BF914248
:104C60002FD000BF00BF00BF00BF00BF00BF00BF0C
:104C700000BF00BF00BF00BF00BF00BF00BF00BF3C
:104C800000BF00BF00BF00BF00BF00BF00BF00BF2C
:104C900000BF00BF00BF00BF00BF00BF00BF00BF1C
:104CA00000BF00BF00BF00BF00BF00BF00BF00BF0C
:104CB00000BF00BF00BF00BF00BF00BF00BF00BFFC
:104CC00000BF401EC3D170476C2700200024F400B1
:104CD00070B50F4C0025207808B1852516E000211D
:104CE000A16061602161E1604FF0E020D0F8000137
:104CF000012610F0010F03D10721002000F029F850
:104D000001F0D2FA08B9034806602670284670BD43
:104D1000782C00201805004038B500208DF80000E0
:104D20006846FEF7FBFB074C207808B9FFF7D0FF79
:104D3000E068401CE0600120A0709DF80000FEF7D4
:104D400011FC38BD782C0020002801D1FFF7B4BA3F
:104D500070474907090E002806DA00F00F0202F139
:104D6000E02282F8141D03E000F1E02282F8001432
:104D700000F01F02012191404009800000F1E02075
:104D8000C0F88012C0F800117047000B40B27047A5
:104D90002DE9F0410E46804601F008F8204D00282C
:104DA000404616D0FFF780FA284490F85800800952
:104DB000032802D001280AD003E0404600F078FB27
:104DC00028B103214046BDE8F04100F02FBB02218D
:104DD000F8E700F0F7FF002820D04046FFF764FA1C
:104DE0000446104F4FF4807007EB840100EB840001
:104DF000D1F8102580B242F00102C1F8102500F070
:104E000095FB002E0AD04046FFF74EFA55F82000D9
:104E1000002803D00120A040C7F80403BDE8F081BA
:104E20008C2C0020006000402DE9FC41DFF8AC80B4
:104E3000044608EB0400002790F930001346C01721
:104E40000E46401C01D0082744E0F278194620465F
:104E5000FFF706FA0546401C3BD0B07868B16846BB
:104E6000009400F009FB009900EB8100D0F80017D6
:104E700021F00201C0F8001707E0002173782046F6
:104E800000910A46019100F072FAF078C0B114481E
:104E9000317800EB8500D0F81025124B1A40C0F88D
:104EA00010254FF47C524FF4403302EA042203EA07
:104EB00001410A43D0F810150A43C0F8102509E053
:104EC00008EB0500327810F8581F41EA8211017092
:104ED00000E004273846BDE8FC8100008C2C00204F
:104EE00000600040FFC0FCFF10B500F0E1FA0028B0
:104EF00000D0012010BD000070B5144D95F864007D
:104F000008B1082070BD0020411E2A18401CC0B204
:104F100082F830103028F8D300242046FFF792F9A9
:104F2000641CE4B20C2CF8D307210620FFF711FF14
:104F30004FF4BE7000F0FAFA05494FF00040C1F896
:104F40000403012085F86400002070BD8C2C002033
:104F500000600040034890F86400002800D0012061
:104F6000704700008C2C00200121B1EB507F01D153
:104F700001207047002070472DE9F0410546007977
:104F8000164F904607EB40140E46E07E10B1082005
:104F9000BDE8F081707F20772846FEF7FDFA5FEAD2
:104FA000080060603169216003D0317F2846FFF737
:104FB0008BFB287907EB4010007F0028286801D080
:104FC000082100E00421C0F800150020E0752076DB
:104FD000A0750121E176A076DAE70000F42C00202C
:104FE0002DE9F04105460079284E904606EB401425
:104FF0000F46207F18B10846FFF7B6FF80B1626800
:1050000000234FF404704FF4017172B12A7906EB5A
:105010004212127F002A2A6805D0C2F8080304E071
:105020001020BDE8F081C2F80813E27DB2B1227E03
:105030007AB162685AB12A7906EB4212127F1AB12C
:105040002968C1F8040302E02868C0F8041311209D
:10505000E7E72761012384F8188005E084F81780CA
:105060000020E760607620762879424606EB401003
:105070003946007F0028284603D0BDE8F04100F003
:1050800073B8BDE8F04100F01BB80000F42C00201C
:1050900070B504460079094D05EB4010017F0029E9
:1050A0000AD1807E002807D1204600F02BFF21790D
:1050B000012005EB4111887670BD0000F42C002022
:1050C0002DE9F05F04460079264901EB4015A87EE2
:1050D000184302D1204600F015FF686800282068B8
:1050E00006D04FF40171C0F804130020BDE8F09F12
:1050F0004FF4A276314600F0B5FBB1464FF4927AF8
:105100004FF4847B5146206800F0A7FB06465946C1
:10511000206800F0A2FB80464946206800F09DFB15
:10512000074648EA07003043ECD056EA070007D1AB
:105130002946206800F070FEE87D697E8842E1D84B
:105140000020E8750EB10320D0E70FB10F20CDE7A6
:10515000A97E01200029216801D00860C5E74860C8
:10516000C3E70000F42C00202DE9F05F89460446D7
:105170004FF488759A46904600260068294600F04C
:1051800082FB4FF4A2773946206800F07CFB206850
:10519000C0F83495C0F838852068BAF1000F14D0F3
:1051A000D0F8001241F02001C0F800122179DFF898
:1051B000648008EB4110406850B120684FF40471DE
:1051C000C0F804133046BDE8F09F01210160EDE70F
:1051D000AA46B9464FF4927B5146206800F04EFB38
:1051E00007464946206800F049FB054659462068B5
:1051F00000F044FB014647EA05000843ECD0237960
:10520000002208EB4310C27501B10326002DD9D04E
:105210000F26D7E7F42C00202DE9F047054600794A
:105220003F4E904606EB40140F46207F18B10846CB
:10523000FFF79AFE30B1284600F074F820B1112033
:10524000BDE8F0871020FBE784F81680A7600027F0
:10525000A78228794FF0010806EB40143E46207FD4
:105260000028286825D04FF49079494600F00BFBC0
:105270004FF4AC7A5146286800F005FB2868A17D00
:10528000A268C0F84425C0F848152868C0F808800E
:105290006068F0B94946286800F0F0FA8046514647
:1052A000286800F0EBFA58EA0001F3D058BBA77564
:1052B0000FE04FF48E7A514600F0D4FA2868C0F817
:1052C00008802146286801F0FBF861684FF480707F
:1052D00089B13046B4E75146286800F0BEFA10B9EB
:1052E000A08A4845F7D1A08A484505D021462868BC
:1052F00001F0E6F800E08146A08AA17D8842EAD369
:10530000A08A484501D10F26D1E75146286800F010
:10531000A4FA0028F9D02868C0F80C80C7E700007C
:10532000F42C00200079044901EB4010807D002816
:1053300000D0012070470000F42C00202DE9FF412F
:105340001C46DDE90A7815460E46684600F086F8E8
:1053500046EA450141EA840141EA072242EA08415E
:10536000009A00EB8200C0F80017BDE8FF812DE92C
:10537000FF411C46DDE90A7815460E46684600F0F6
:105380007BF846EA450141EA840141EA072242EA04
:105390000841009A00EB8200C0F80017BDE8FF81C9
:1053A0002DE9FF411C46DDE90A7815460E466846A0
:1053B00000F070F846EA450141EA840141EA07221B
:1053C00042EA0841009A00EB8200C0F80017BDE8ED
:1053D000FF811CB500220B46009211460192FFF797
:1053E000DFFF1CBD1CB5002100910B46012201917D
:1053F0001146FFF7D5FF1CBD202802D24FF0A04276
:1054000002E0094A00F01F0002EB8000D0F80027FC
:1054100022F44032C0F80027D0F8002742EA0141C8
:10542000C0F80017704700000003005013B50C4689
:10543000684600F021F8009900EB8101D1F80027BF
:1054400022F44032C1F80027009900EB8100D0F827
:10545000001741EA0441C0F800171CBD016820296B
:1054600002D24FF0A040704701F01F0101600148D7
:1054700070470000000300500168202902D24FF05D
:10548000A040704701F01F01016001487047000013
:10549000000300500168202902D24FF0A04070475D
:1054A00001F01F0101600148704700000003005037
:1054B00001B56846FFF7E0FFD0F810050099C84035
:1054C00000F0010008BD01B56846FFF7E3FF009A50
:1054D00001219140C0F8081508BD38B5012400909D
:1054E000684631B1FFF7BAFF00998C40C0F8084513
:1054F00038BDFFF7B3FF00998C40C0F80C4538BDAC
:105500001CB5094C0144D4E90034CDE900346C46A3
:1055100006E000BF54F82030D3F81035401C08C214
:105520008142F7D81CBD0000206B0200034908B57A
:105530000844002101600068009008BD0060004040
:1055400002494058012800D0002070470060004008
:10555000004870477D55020070B5074D0446287815
:1055600010B16878844204D0FDF76AF801202870F1
:105570006C70002070BD0000542700202DE9F04F12
:10558000C1B017464FF00002080040924D994B9A67
:105590001E4602EB010A01D00A2100E000218846E4
:1055A0006D46AEB9294640AA00F070FF00286FD0C2
:1055B0003846FCF79BFEC22800D9C220044640981A
:1055C000224628443946FCF76DFE4098204440901E
:1055D0004FF0200B409901EB080231320DEB010432
:1055E0000DEB0205002002E004F801BB401C404521
:1055F000FAD30027564508D304F801BB04F801BBD1
:1056000004F801BB05F801BB2DE04B98864202D29D
:105610004A98805D02E0311A4C98405C0121814635
:105620000246880022FA00F000F00F00092801D994
:10563000373000E03030C1F1010C234604F80C0093
:10564000491EEED29C1C04F801BBFCF727FE016842
:1056500011F8090010F03E0F01D0484600E02E205E
:1056600005F8010B761C7F1C102FC3D30D2028706A
:105670000A20687084F800B040996846414443317C
:10568000409100F087FC18B1002040905645A1D30E
:1056900041B03046BDE8F08F2DE9F041C6B09046EC
:1056A0000846002505AE1C464C9F314645AA459547
:1056B00000F0ECFE002835D0072F27D2DFE807F0F6
:1056C00004121B35424F5D004046FCF70FFE459922
:1056D00005460844FF2819D870182A464146FCF7A9
:1056E000E1FD13E045982368C0F5807130444246DF
:1056F000FDF78AF909E06068009045982368C0F5D5
:10570000807130444246FDF77FF90546294645A899
:10571000FEF78AFD459978B3B1F5807F3ED805A89C
:1057200000F038FC46B0BDE8F081D4E90101CDE9D4
:10573000000145982368C0F5807130444246FDF76A
:1057400063F9E2E7201D07C88DE807004598236844
:10575000C0F5807130444246FDF756F9D5E7201D6B
:105760000FC88DE80F0045982368C0F5807130445C
:105770004246FDF749F9C8E710E004F1080001AD21
:105780000FC885E80F006068009045982368C0F551
:10579000807130444246FDF737F9B6E70020C1E793
:1057A000004870479956020038B50D460093034BE8
:1057B00000215C6913462A46A04738BDD42E00203C
:1057C0002DE9FF471C460023094F164688468146AF
:1057D0001D460096CDE901450395D7F818C042460D
:1057E00000214846E0470346A042F2D3BDE8FF87C8
:1057F000D42E002000231A46FFF7D6BF08B5012398
:1058000000926A46FFF7D0FF08BD1CB5CDE9002322
:1058100002236A46FFF7C8FF1CBD3EB5069C8DE813
:105820001C0003236A46FFF7BFFF3EBD014AC2E9E1
:1058300005017047D42E002070B50120FFF78CFEC3
:10584000040008D1FFF7ACFF0546FFF781FE0146D3
:105850002846FFF7EBFF204670BD4058002800D0D7
:105860000120704708B5002242504058009008BD02
:10587000D0F80403084000D00120704740580028A9
:1058800000D00120704708B50022425040580090D7
:1058900008BD000070B50C4615460CA10420FFF7AA
:1058A000A9FF2B46224619A10420FFF789FF227881
:1058B0006178A078E378120602EB0141BDE8704000
:1058C00001EB0020C11815A0FDF78EB84150503AE9
:1058D00044454255473A526563656976656420647C
:1058E0006174612066726F6D20424C45204E5553A5
:1058F0002E2057726974696E672064617461206F2D
:105900006E20554152542E0D0A0000004150503A6D
:1059100044454255473A0D0A00000000256C6420BA
:105920000D0A000010B550B103280CD10220FEF77B
:1059300041FB002807D0BDE81040FDF799BCBDE849
:10594000104000F0C9BB10BD30B53E4D0446018883
:10595000688889B0222933D00CDC01294BD010296A
:1059600014D011291CD0132934D100231A468521C3
:105970007FDF35E03B293AD0512940D052292BD046
:10598000562927D1A088132176DF29E00720FEF7CA
:1059900011FB08B1FDF76CFCA08868802AA109E022
:1059A0000020FEF707FB08B1FDF762FC4FF6FF7021
:1059B00068802BA109B00320BDE83040FFF71ABF73
:1059C000002000900190A0880022694690DF34E01A
:1059D000FDF74EFC09B030BD00231A461946A9DF79
:1059E0000028F7D009B0BDE83040FDF741BCA088E1
:1059F000132176DFF4E7A088002166DFF0E71022AC
:105A0000A11D04A8FCF74EFC9DF810100029E1D060
:105A10009DF81800042803D0062801D00528D9D104
:105A200002290DD05FF001008DF800004FF4C17025
:105A3000ADF80400A0886946A8DF0028C8D1C9E7EE
:105A40000220F1E7C02600204150503A494E464F0F
:105A50003A436F6E6E65637465640D0A0000000062
:105A60004150503A494E464F3A446973636F6E6EE7
:105A700065637465640D0A000078002807D1044846
:105A80003B21408876DF002801D0FDF7F1BB70474D
:105A9000C02600207CB58E88027900EBC605AC1DBF
:105AA0002A73C97B012902D0022904D101E00088B0
:105AB00000E04088208022886088824210D93346E6
:105AC0001A490420FFF7A1FE218830469EDF02001C
:105AD0004FF0010022D0112A22D01549FFF78EFE87
:105AE000A279E079824218D9334612490420FFF79F
:105AF0008CFE002000900190287BADF80000287BF0
:105B0000ADF8020000226946304690DF030004D061
:105B1000324609490120FFF778FE7CBD6071DFE75E
:105B20002071324605490420D8E700004C6F02007E
:105B3000706D0200EC6F0200846E02008070020043
:105B400070B590B0054634226846091DFCF7AAFBE3
:105B5000BDF80040BDF8040005EBC406C2B2727384
:105B6000234617490420FFF750FEBDF8062015A173
:105B70000420FFF743FEBDF804201CA10420FFF71A
:105B80003DFEBDF80A2023A10420FFF737FEBDF833
:105B900008202AA10420FFF731FEA86900280DD0B3
:105BA0003049D1E90401CDE90D01ADF83640707BF3
:105BB0008DF83800AA690DA92846904710B070BD2D
:105BC0003C7002006E72665F626C655F6761747440
:105BD0003A44454255473A6D61785F72785F6F632A
:105BE000746574733A2025750D0A00006E72665F45
:105BF000626C655F676174743A44454255473A6D1B
:105C000061785F74785F6F63746574733A2025758B
:105C10000D0A00006E72665F626C655F6761747486
:105C20003A44454255473A6D61785F72785F7469CE
:105C30006D653A2025750D0A000000006E72665FE2
:105C4000626C655F676174743A44454255473A6DCA
:105C500061785F74785F74696D653A2025750D0A07
:105C600000000000F86A02007CB500220092019258
:105C70008A880D7A0C1D00EBC2062B460D490420C4
:105C8000FFF7C3FD327BAA4200D32A46ADF80020BD
:105C9000ADF80220238808490420FFF7B6FD2088CC
:105CA0000022694690DF020003D004490120FFF77B
:105CB000A5FD7CBD1C6D0200A06F0200246E0200D9
:105CC0002DE9FC418E88CD8800EBC60407462B46A3
:105CD00032461A490420A41DFFF797FD172D00D264
:105CE00017252088A84200D805466580002020712D
:105CF00000962388628812490420FFF78EFD2188D0
:105D00003046ADDF020003D00E490120FFF776FDDB
:105D10006079002810D1B86900280DD00A49D1E96E
:105D20000201CDE90001ADF802606088ADF8040021
:105D3000BA69694638469047BDE8FC81CC6C0200E0
:105D4000F86E0200CC6D0200F86A02007CB58D8806
:105D5000064600EBC5044A8934F8060F904200D885
:105D600002466280172A00D2172262802B460D4914
:105D70000420FFF74AFDB06978B1607968B10A493B
:105D8000D1E90001CDE90001ADF802506088ADF81D
:105D90000400B26969463046904700206071207166
:105DA0007CBD0000206C0200F86A0200044908442F
:105DB00090F93000082801DB01207047002070476F
:105DC0008C2C00200449084490F93000082801D2A6
:105DD00001207047002070478C2C002070B50126F0
:105DE00070044FF0E0210025C1F88001084C4010FC
:105DF000C4F84803C4F8080366602F20FEF722FFAA
:105E0000A660044C2F20A560FEF71CFFA57070BD96
:105E1000001001402C27002070B50546C87D0C46B7
:105E200000284FF4847128460AD0FFF71BFDD5F8EF
:105E30001805627EE1688854607E401C607670BD03
:105E4000FFF710FDD5F8180570BD30B58FB00546C9
:105E50001C216846FCF73FFA00249DF800000194DD
:105E600040F00C008DF8000003940494059406940F
:105E700028788DF836000220ADF834000C949DF897
:105E80003000142120F00F00401C20F0F0001030F2
:105E90008DF830009DF8310020F00F00401C20F0FC
:105EA000F00010308DF831009DF8320020F006002F
:105EB000801C20F0180040F001008DF8320007A887
:105EC000FCF709FA0DA807900CA808900120ADF87E
:105ED00024009B20ADF82640ADF82800688805F125
:105EE0000C0307AA6946A2DF0FB030BD1FB501231E
:105EF0008DF800308DF808100192D0E90012684644
:105F000090471FBD10B5044600684FF49271FFF72B
:105F1000A9FC4FF484712068FFF7A4FC20680121DC
:105F2000016010BD10B50446FCF796FD40B1002C91
:105F300009DA04F00F0000F1E02090F8140D06E0FB
:105F400042F2010010BD04F1E02090F80004410984
:105F5000082914D299B1012911D004290FD005299B
:105F60000DD00B480122816861B1610950F82130E0
:105F700004F01F04A240134340F8213005E042F230
:105F8000020010BD2046FCF7F6FA002010BD00000C
:105F9000602E00202DE9F041002507464FF0010852
:105FA0000C460A26791922460020FCF753FB0544CB
:105FB000241A08B9761E01D0002CF3D14046BDE862
:105FC000F08100002DE9F0410746806A14468846BA
:105FD000C8B3002531E000BFB96A05EB450001EB0D
:105FE0008006B088801CFE2802D90C20BDE8F08114
:105FF0002288401C08F8020020881622401C80B22B
:10600000208008F800202088401C80B2208000EB0F
:106010000801308800F091FC2188084480B220807B
:10602000B28842B1B16871B14044FCF73BF92088B5
:10603000B188084420806D1CEDB297F82C00A8426E
:10604000CAD80020D2E7FFE70720CFE710B50F49F5
:106050000F4C0A8A42818A8A8281097891B1A1799A
:1060600081B9217A71B102210172084904202031DD
:10607000C870064800212030FDF7E2FA002804D15C
:10608000052000E00320A070002010BD882B002018
:10609000E426002010B50E490E4C0A8B42818A8BF3
:1060A00082810A78042182B1A27972B9227A62B11E
:1060B0000222027206482030C1700021FDF7C0FAAA
:1060C000002804D10620A07000E0A170002010BDBF
:1060D000882B0020E426002010B50020FDF76AFF81
:1060E00008B1FDF7C5F8FDF7C7FE08B1FDF7C0F828
:1060F00032DF002803D0BDE81040FDF7B9B810BD6D
:1061000008B5034A009200210260084608BD00005D
:10611000C026002018B103490861002070470E20F6
:10612000704700005827002038B50268054612A1C4
:1061300004200092FFF762FB684660DF044628688F
:10614000009A90420FD014A10220FFF757FB4FF0A6
:106150008050D0F80C010099800200F10050421AE2
:106160001AA1022003E024B1224625A10120FFF755
:1061700045FB204638BD00005344483A444542554B
:10618000473A52414D20737461727420617420301B
:106190007825782E0D0A00005344483A5741524E54
:1061A000494E473A52414D207374617274207368AE
:1061B0006F756C642062652061646A7573746564D0
:1061C00020746F20307825782E0D0A005344483A09
:1061D0005741524E494E473A52414D2073697A65B4
:1061E0002073686F756C642062652061646A7573E2
:1061F00074656420746F20307825782E0D0A0000B5
:106200005344483A4552524F523A73645F626C6548
:106210005F656E61626C6528292072657475726EA7
:10622000656420756E657870656374656420766159
:106230006C75653A20307825782E0D0A0000000034
:10624000FCF7E6BF2DE9F041074619B188074FF08A
:10625000000402D00720BDE8F081114D4FF0E0208E
:106260000126E9606A806B60D0F8000110F0010F30
:1062700003D034460020FCF768F90A49384610DF9D
:10628000070005D014B10020FCF775F93846E2E7A5
:106290002E70FEF741FDBDE8F0411620FFF742BE2B
:1062A0005827002041620200014800787047000032
:1062B000582700202DE9F84F1D4C00256846D4E9E9
:1062C00001A6FEF707F9002738B30023009A61689A
:1062D0001CE0D1F800C00846944503D9ACEB02029B
:1062E0000A6015E0A2EB0C0263440760D0F80CC012
:1062F000C1698146BCF1000F08D006EB030828F005
:106300007F48C0E9018CC9F81C5005460029E0D13E
:1063100028466160FEF750FA03E02846FEF74CFA83
:1063200010B15046FDF7DCFFE770BDE8F88F0000C4
:106330002C2700200D4B10B5596831B102680C684C
:10634000A24204D8A21A0A60C161586010BD0B466F
:1063500003E00B46C969121B21B10C689442F8D3C3
:10636000A41A0C600260C161D86110BD2C27002006
:106370002DE9F041144E77683D462C4603E08442F7
:1063800004D02546E469002CF9D11BE0D4B1A54224
:106390000BD1F869706040B90C4901208860002178
:1063A000B160F0702F20FEF74DFC2168E069E861D4
:1063B00010B10268114401607068874202D0012068
:1063C000BDE8F0810020FBE72C27002000100140F1
:1063D0007CB5064600240D468DF800406846FDF762
:1063E0009DF801A800F0DEFA70B105700949466019
:1063F0009DF8040048709DF80000FDF7B3F81420E4
:10640000FCF7C4F820467CBD04249DF80000FDF78D
:10641000A9F8F7E7342D00202DE9F041194D6C68FB
:10642000002C2CD0184800270068A968B846401AEC
:1064300020F07F462068B0420CD82146361A074427
:10644000E469087C20B181F810808869496988472F
:10645000002CEFD129786878814206D1401CC0B267
:106460006870022801D185F80180064869780C30EF
:1064700040F82170BDE8F0411420FCF787B8BDE872
:10648000F08100002C2700200415014010B51446AF
:1064900002004FF001000CD00846136806A24FF42A
:1064A0008071FCF7B1FA01462046BDE81040FDF7C7
:1064B000BBBE0021216010BD5B253038645D00004B
:1064C00070B50C4605464FF48E71FFF7CBF9A18AE3
:1064D000A068415CA08A401CA082C5F81C1570BD54
:1064E00030B58FB00024054607949DF81C001C2190
:1064F00020F00F00401C20F0F00010308DF81C0040
:106500009DF81D0020F00F00401C20F0F00010301E
:106510008DF81D009DF81E0020F00600801C8DF8EF
:106520001E006846FBF7D7FE9DF80000019440F07E
:1065300010008DF8000007A8CDE9044003940694EC
:1065400028788DF83A000320ADF838000D949DF8B6
:106550003400142120F00F00401C20F0F000103017
:106560008DF834009DF8350020F00F00401C20F01D
:10657000F00010308DF835009DF8360020F0060050
:10658000801C20F0180040F001008DF8360008A8AB
:10659000FBF7A1FE0EA808900DA809900120ADF808
:1065A00028009B20ADF82A40ADF82C0068882B1DF0
:1065B00008AA6946A2DF0FB030BD1FB500228DF8D2
:1065C00000208DF80810816801918275D0E90012D1
:1065D000684690471FBD000070B5017841B10129A0
:1065E00001D002292FD14068BDE87040FCF740BEC1
:1065F000164C154D20782844FCF7FEFE2078401CF0
:10660000C0B22918207011F8011C0A2902D0A188F3
:10661000884218D30EA10420FFF7ECF823780A4A29
:1066200016A10420FFF7CCF80749227801F527705E
:10663000FDF7B6FA082804D01128F5D008B1FCF708
:1066400017FE0020207070BD48280020C0260020C2
:106650004150503A44454255473A52656164792069
:10666000746F2073656E642064617461206F766559
:106670007220424C45204E55530D0A004150503A6D
:1066800044454255473A0D0A000000007CB50178A8
:10669000244D81B301290BD002292BD18DF8001094
:1066A000C068691C01900122C81DFEF799FC2EE00C
:1066B000406801781C48FCF701FE1B4C012618B10C
:1066C0008DF80060019006E0A068E168814205D085
:1066D00000208DF80000696868468847A068E16876
:1066E000081AA188884207D80E490122491CC81DF2
:1066F000FEF776FC7CBD01E0AE70FBE70A48094975
:106700001030FCF7C0FD30B103208DF8000069683F
:1067100068468847EEE70349012201F10800FEF7C9
:106720007BFDE7E740270020402E00202DE9FF47B2
:106730000C4605464FF40071FFF79AF801274FF415
:106740000178002618B34FF4927949462846FFF79E
:1067500084F8E0B149462846FFF784F8C5F8088375
:10676000A07E00B96F6002208DF80000D5F880048B
:10677000C5F880040390E07D8DF80800E068019082
:10678000E6752676D4E900126846904727E0042192
:106790002846FFF76DF810B34FF484712846FFF7D1
:1067A0005CF8E0B121462846FFF736FBE07D617ECC
:1067B000884214D1207E38B1617EE268E07520699C
:1067C000E0602676667607E0A07E00B96F60C5F8C7
:1067D0000883E675617EE2682046FFF787FB4FF489
:1067E0008E7841462846FFF738F888B1A08AA17D07
:1067F000884204D221462846FFF762FE08E041465F
:106800002846FFF72FF8A17D11B12046FFF7D5FEEE
:106810004FF4A27841462846FFF71FF8002812D00F
:1068200041462846FFF71EF8A07E00B12F60E07DAC
:10683000002808D0E675617EE26804B02046BDE815
:10684000F047FFF753BBBDE8FF872DE9FF410C463A
:106850004FF4927705463946FFF710F80026C0B18D
:1068600039462846FFF70FF802208DF80000D5F8CA
:106870008004C5F880040390D5F83C058DF8080025
:10688000E0680190E6752676D4E9001268469047E4
:1068900024E04FF4887739462846FEF7EFFFE8B149
:1068A00039462846FEF7EFFFD5F83C05C1B2E07D3A
:1068B000884213D1207E60B1E268D5F8000220F052
:1068C0002000C5F80002207EE0752069E060267691
:1068D00001E0E675E2682046FFF708FB4FF4A27777
:1068E00039462846FEF7CAFF68B139462846FEF702
:1068F000CAFFE07D38B1E675D5F83C05E268C1B263
:106900002046FFF7F3FA4FF4907631462846FEF71B
:10691000B5FF00280FD031462846FEF7B4FFA07D12
:10692000002808D0D5F84C0504B0C1B22046BDE817
:10693000F041FFF742BEBDE8FF810870000A4870D1
:106940000220704738B515494888A0F57F42FF3AC4
:1069500023D04A78124C521CD2B24A70237B934205
:106960000AD3091D75DF002817D0A169002914D0AA
:1069700001B0BDE83040084700254D70217C29B1A9
:106980003B2176DF10B1A16901B188476169002917
:1069900003D08DF800506846884738BD0427002092
:1069A0005C2C00200A494A788B78521CD2B2934260
:1069B00000D100220B78934201D100207047027071
:1069C000487800EB400001EBC000001D704700005C
:1069D000342D00202DE9FC411646DDE90854CDE9AF
:1069E00000541F468046022200F00CF8002807D110
:1069F000CDE900543B4610223146404600F002F8F3
:106A0000BDE8FC812DE9FC5F0026DDE90C4B9946D1
:106A100092468E4680462788354630E0D8F80400F6
:106A2000002200EB850069460068019001A864DF40
:106A3000002830D19DF8000050451FD10EB1002133
:106A400000E00221228808441118594522D846B98D
:106A5000521C90B2208009F800E02088401C208061
:106A60000126218801A801EB0902694664DF00289C
:106A700011D120889DF80010084420806D1CB8F8C2
:106A80000000A842CADC56B12088C01B401E80B25C
:106A9000FF2802D90C20BDE8FC9F09F80700002060
:106AA000F9E70000010000070800000006000000F0
:106AB00005000000070000000000000000E0D70112
:106AC0000D0E0F100B0C18191C2B00203C2B002056
:106AD000682B00200B000300993E02000C0003000D
:106AE000993E020018000300993E020019000300BD
:106AF000993E02003C2C0020770A000000000000B4
:106B0000770A0000000000007ADA000000000000B0
:106B10009ECADC240EE5A9E093F3A3B50000406E05
:106B20000000005000030050142D0020030000005E
:106B3000FFFFFFFFFFFFFFFFFFFFFFFFFFFFFFFF65
:106B400000000000000000000000D6010701000066
:106B50000040404040404040404041414141414070
:106B60004040404040404040404040404040404025
:106B700040050202020202020202020202020202B4
:106B800002202020202020202020200202020202B9
:106B90000202909090909090101010101010101011
:106BA000101010101010101010101010020202021D
:106BB0000202888888888888080808080808080861
:106BC000080808080808080808080808020202025D
:106BD00040000000516B02004150503A444542557C
:106BE000473A415454204D54552065786368616E8E
:106BF000676520636F6D706C657465642E206365D6
:106C00006E7472616C2030782578207065726970BE
:106C1000686572616C20307825780D0A00000000EC
:106C20006E72665F626C655F676174743A44454278
:106C300055473A415454204D545520757064617441
:106C4000656420746F202575206279746573206FE8
:106C50006E20636F6E6E656374696F6E2030782589
:106C6000782028726573706F6E7365292E0D0A0087
:106C70006E72665F626C655F676174743A44454228
:106C800055473A52657175657374696E6720746F04
:106C90002075706461746520415454204D54552012
:106CA000746F202575206279746573206F6E206380
:106CB0006F6E6E656374696F6E203078257820285A
:106CC0007265747279292E0D0A0000006E72665F7B
:106CD000626C655F676174743A44454255473A5047
:106CE000656572206F6E20636F6E6E656374696F89
:106CF0006E203078257820726571756573746564CF
:106D000020616E20415454204D5455206F6620253B
:106D1000752062797465732E0D0A00006E72665FCD
:106D2000626C655F676174743A44454255473A50F6
:106D3000656572206F6E20636F6E6E656374696F38
:106D40006E2030782578207265717565737465647E
:106D500020612064617461206C656E677468206FC7
:106D6000662025752062797465732E0D0A00000077
:106D70006E72665F626C655F676174743A45525209
:106D80004F523A73645F626C655F67617474635FEE
:106D900065786368616E67655F6D74755F72657154
:106DA0007565737428292072657475726E65642028
:106DB000756E65787065637465642076616C756561
:106DC00020307825782E0D0A000000006E72665F74
:106DD000626C655F676174743A4552524F523A7300
:106DE000645F626C655F67617474735F6578636824
:106DF000616E67655F6D74755F7265706C79282967
:106E00002072657475726E656420756E6578706544
:106E1000637465642076616C756520307825782E02
:106E20000D0A00006E72665F626C655F6761747464
:106E30003A4552524F523A73645F626C655F6761C4
:106E4000705F646174615F6C656E6774685F7570B4
:106E500064617465282920287265706C7929207214
:106E6000657475726E656420756E6578706563749F
:106E700065642076616C756520307825782E0D0A62
:106E8000000000006E72665F626C655F676174741B
:106E90003A4552524F523A73645F626C655F676164
:106EA000705F646174615F6C656E6774685F757054
:106EB0006461746528292028726571756573742969
:106EC000206F6E20636F6E6E656374696F6E203025
:106ED0007825782072657475726E656420756E65AC
:106EE000787065637465642076616C7565203078B0
:106EF00025782E0D0A0000006E72665F626C655F79
:106F0000676174743A44454255473A5570646174F8
:106F1000696E6720415454204D545520746F2025CC
:106F2000752062797465732028646573697265647D
:106F30003A20257529206F6E20636F6E6E6563742D
:106F4000696F6E20307825782E0D0A006E72665FAC
:106F5000626C655F676174743A44454255473A52C2
:106F6000657175657374696E6720746F20757064E0
:106F700061746520415454204D545520746F202570
:106F800075206279746573206F6E20636F6E6E6515
:106F90006374696F6E20307825782E0D0A0000002A
:106FA0006E72665F626C655F676174743A444542F5
:106FB00055473A5570646174696E67206461746105
:106FC000206C656E67746820746F20257520627967
:106FD000746573206F6E20636F6E6E656374696F86
:106FE0006E20307825782E0D0A0000006E72665FE4
:106FF000626C655F676174743A44454255473A5222
:10700000657175657374696E6720746F207570643F
:107010006174652064617461206C656E67746820BA
:10702000746F202575206F6E20636F6E6E656374BC
:10703000696F6E20307825782E0D0A006E72665FBB
:10704000626C655F676174743A44454255473A44DF
:10705000617461206C656E6774682075706461741A
:10706000656420746F202575206F6E20636F6E6ECF
:10707000656374696F6E2030782530782E0D0A00B4
:107080006E72665F626C655F676174743A44454214
:1070900055473A73645F626C655F67617474635FE0
:1070A00065786368616E67655F6D74755F72657141
:1070B000756573742829206F6E20636F6E6E65632B
:1070C00074696F6E20307825782072657475726EE1
:1070D000656420627573792C2077696C6C20726509
:1070E0007472792E0D0A000008710200C02600207B
:1070F000B0000000382A0200B8710200702700209A
:10710000082A0000482A02000000FFFF14000100C6
:10711000020000000000000000000000000000006D
:10712000000000000000000000000000000000005F
:10713000000000000000000000000000000000004F
:10714000000000000000000000000000000000003F
:10715000000000000000000000000000000000002F
:10716000000000000000000000000000000000001F
:10717000000000000000000000000000000000000F
:1071800000000000000000000000000000000000FF
:10719000002000400000000000000000000000008F
:1071A00000000000000000000000000000000000DF
:0871B000000000000090D00374
:0400000500022201D2
:00000001FF
