:020000040001F9
:10F00000A050002015F201001DF201001FF20100C6
:10F0100021F2010023F2010025F2010000000000AE
:10F0200000000000000000000000000027F20100C6
:10F0300029F20100000000002BF201002DF2010076
:10F04000DDFA01002FF201000DFF01002FF2010097
:10F050002FF201002FF20100D9F801002FF2010078
:10F060002FF201002FF201002FF201002FF2010018
:10F070002FF201002FF201002FF201002FF2010008
:10F080002FF2010035FB01002FF201002FF20100E9
:10F09000C9FB01002FF20100CDFB01002FF201009E
:10F0A0002FF201002FF201002FF201002FF20100D8
:10F0B0002FF201002FF2010000000000000000000C
:10F0C0002FF201002FF201002FF201002FF20100B8
:10F0D0002FF201002FF201002FF2010000000000CA
:10F0E0000000000000000000000000000000000020
:10F0F0000000000000000000000000000000000010
:10F1000000000000000000000000000000000000FF
:10F1100000000000000000000000000000000000EF
:10F1200000000000000000000000000000000000DF
:10F1300000000000000000000000000000000000CF
:10F1400000000000000000000000000000000000BF
:10F1500000000000000000000000000000000000AF
:10F16000000000000000000000000000000000009F
:10F17000000000000000000000000000000000008F
:10F18000000000000000000000000000000000007F
:10F19000000000000000000000000000000000006F
:10F1A000000000000000000000000000000000005F
:10F1B000000000000000000000000000000000004F
:10F1C000000000000000000000000000000000003F
:10F1D000000000000000000000000000000000002F
:10F1E000000000000000000000000000000000001F
:10F1F000000000000000000000000000000000000F
:10F20000DFF80CD000F044FB0048004771230200F7
:10F21000A05000200648804706480047FEE7FEE76A
:10F22000FEE7FEE7FEE7FEE7FEE7FEE7FEE7FEE7B6
:10F23000F1FB010001F201002DE9F05F054600201D
:10F2400092469B4688460646814640241BE0284657
:10F2500041464746224600F030F953465A46C01A06
:10F26000914110D311461846224600F017F92D1A85
:10F2700067EB01084F4622460120002100F00EF9FD
:10F2800017EB00094E41201EA4F10104DFDC4846C3
:10F2900031462A464346BDE8F09F000000487047CB
:10F2A0005447020040EA01039B0703D009E008C964
:10F2B000121F08C0042AFAD203E011F8013B00F83B
:10F2C000013B521EF9D27047D2B201E000F8012B87
:10F2D000491EFBD270470022F6E710B513460A46D6
:10F2E00004461946FFF7F0FF204610BD421C10F8F7
:10F2F000011B0029FBD1801A7047034611F8012B2E
:10F3000000F8012B002AF9D1184670472DE9FE4F6D
:10F3100081EA030404F0004421F0004100944FF01E
:10F32000000B23F0004350EA01045ED052EA0304CC
:10F330005BD0C3F30A54C1F30A552C44A4F2F3344E
:10F340000194A0FB0254C1F3130141F48011C3F3F3
:10F35000130343F4801301FB024400FB034E840AB1
:10F36000970A44EA815447EA8357A4FB0768029549
:10F370008D0A05FB07854FEA932C04FB0C542705E7
:10F38000029D4FEA065847EA1637B5EB08056EEBC3
:10F39000070C870E920E47EA811742EA8312A7FBF9
:10F3A0000201B6EB0B0164EB00042B0D43EA0C33B6
:10F3B0005E1844EB1C50DA465146E7FB0201C5F3E8
:10F3C00013044FEA0B3343EA14534FEA0432019C0F
:10F3D00043EA0603A4F10C040294009CCDE900B4B6
:10F3E00000F0C1F803B0BDE8F08F00200146F9E756
:10F3F0000EB5C10F80EAE0700844CA07002140F250
:10F4000033438DE80E000A460B4600F0ACF803B01B
:10F4100000BD00F0004230F000400AD0C10D01F5FF
:10F420006071C0F3160042EA0151C208400711435F
:10F43000704700200146704701F0004330B421F0CE
:10F44000004150EA010206D00A0DA2F56072C1F334
:10F450001301002A02DC30BC00207047440F44EA4C
:10F46000C104C100E01830BC00EBC25000F035B858
:10F4700030B50B46014600202022012409E021FA84
:10F4800002F59D4205D303FA02F5491B04FA02F581
:10F490002844151EA2F10102F1DC30BD202A04DB54
:10F4A000203A00FA02F1002070479140C2F1200397
:10F4B00020FA03F3194390407047202A04DB203AD6
:10F4C00021FA02F00021704721FA02F3D040C2F184
:10F4D000200291400843194670470029A8BF704791
:10F4E000401C490008BF20F00100704710B4B0FA7A
:10F4F00080FC00FA0CF050EA010404BF10BC704715
:10F5000049B1CCF1200421FA04F411FA0CF118BF2E
:10F51000012121430843A3EB0C01CB1D4FEA0061FD
:10F520004FEA102042BF002010BC704700EBC350D0
:10F5300010440029A4BF10BC7047401C490008BFFC
:10F5400020F0010010BC704710B5141E73F10004C8
:10F5500008DA401C41F1000192185B411A4301D1C5
:10F5600020F0010010BD2DE9F04D92469B4611B1EF
:10F57000B1FA81F202E0B0FA80F220329046FFF751
:10F580008DFF04460F4640EA0A0041EA0B0153464C
:10F590005A46084313D0114653EA010019D0C8F166
:10F5A00040025046FFF789FF05460E465046594631
:10F5B0004246FFF773FF084305D0012004E02046D0
:10F5C0003946BDE8F08D0020054346EAE0762C433D
:10F5D00037430A986305E40AA0EB08000022FD0AFD
:10F5E00044EA47540A3002D500200146E9E7010504
:10F5F00010196941DDE9084500196941BDE8F04D80
:10F60000A2E72DE9FE4F804681EA0300C00F0C46B9
:10F61000009021F0004123F00045B8EB0200A94121
:10F6200005D24046214690461C460B46024623F032
:10F630000040104347D0270DC7F30A00C3F30A5117
:10F640000290401A019040286BDAC3F3130040F493
:10F65000801B0098924620B10023D2EB030A63EB93
:10F660000B0B01985946C0F140025046FFF716FFB8
:10F6700006460D4650465946019A00F01BF910EB1C
:10F6800008006141002487EA115284EAE7731A43B3
:10F6900040D0009A62B3019A012A4FEA075215DC62
:10F6A000001B61EB02014FF0004202EA0752CDE974
:10F6B0000042001C41F5801132462B46FFF753FFF4
:10F6C00003B0BDE8F08F40462146F9E7001B61EB2F
:10F6D0000201001C41F5801300185B412018A2F5BF
:10F6E000001747EB030140EAD570B6196D4111E0F0
:10F6F0006D084FEA360645EAC0754FEA0752001B0F
:10F7000061EB0201001C41F5801149084FEA30000D
:10F710000019514132462B4603B0BDE8F04FFFF7C8
:10F7200013BF0098012240000023D0EB020263EBDC
:10F73000E073009821464FEAE074B8EB000061EBFB
:10F740000401E9E783F000435BE781F0004158E7FB
:10F750002DE9F04D81EA030404F0004B21F000454F
:10F7600014464FF0000A23F0004150EA050220D071
:10F7700054EA01021DD0C5F30A570246C5F313032C
:10F78000C1F31300C1F30A5640F4801543F480130B
:10F79000A7EB0608101BD64608F2FD3873EB0500F0
:10F7A00002D308F1010801E092185B41B8F1000FA3
:10F7B00003DA00200146BDE8F08D00204FF48011EF
:10F7C000064684460EE0171B73EB050705D3121B94
:10F7D00063EB050306434CEA010C49084FEA30008D
:10F7E00092185B4150EA0107EDD152EA030012D0B2
:10F7F00082EA040083EA0501084305D0101BAB41EF
:10F8000006D20122002306E000224FF0004302E06E
:10F810006FF0010253101AEB06004CEB085110EB8D
:10F820000A0041EB0B01BDE8F04DFFF78DBEC1F3BF
:10F830000A52C1F3130140F2FF3341F480119A429E
:10F8400002DA00200146704740F233439A42A2F2A6
:10F85000334202DC5242FFF730BEFFF71FBE00000A
:10F8600030B5041E71F1000404DB4FF00044404247
:10F8700064EB0101141E73F1000405DB1C464FF01C
:10F880000043524263EB0403994208BF904230BDEB
:10F89000064C074D06E0E06840F0010394E80700DD
:10F8A00098471034AC42F6D3FFF7AEFC684C020028
:10F8B000884C0200202A06DBCB17203A41FA02F0DE
:10F8C00043EAE07306E041FA02F3D040C2F12002BD
:10F8D00091400843194670472DE9F04700268CB047
:10F8E000DFF86091B0464FF48075012437460696E4
:10F8F000284603F01BFB38B1D9F80403204203D09B
:10F90000284603F009FB26432D1D64007F1CADB281
:10F91000082FEDD34FF4BE74204603F007FB48B127
:10F92000204603F0F9FA46F0004606AA012100201D
:10F9300003F0DEFA444D16F0FF0F15D00127002426
:10F9400037420DD009EB8401D1F81005D1F810151C
:10F95000C0F3042055F82420C1F3014102B19047BF
:10F960007F00641C082CEBD3002E67DA4FF0FF30C9
:10F97000CDE9088000263446281910F8507F90F908
:10F98000000027F0C008401C44D009A9404602F0FE
:10F990002DFE58B34FEA9719404602F0E5F955F8A5
:10F9A00020701FB1B9F1030F03D00FE0B9F1030FBD
:10F9B00030D108A84FEAD80208F00703815C4FF065
:10F9C000010C0CFA03FC41EA0C0181544FF0A041F8
:10F9D00001EB8800D0F8000706A9C0F3014A4046B1
:10F9E00002F004FE18B1BAF1020F03D012E0BAF12E
:10F9F000030F0FD1B9F1030F08D1BAF1020F1BD0D9
:10FA00000221404603F058FA761CF6B217B1494677
:10FA10004046B847641C042CAED3002E0ED06A4674
:10FA20000121002003F064FA06990098884205D06D
:10FA30000690089809909DE70321E2E70CB0BDE825
:10FA4000F087000000600040C42B002000F01F027F
:10FA5000012191404009800000F1E020C0F88012AF
:10FA6000704700F01F02012191404009800000F121
:10FA7000E020C0F88011704700F01F020121914082
:10FA80004009800000F1E020C0F80011704700F04C
:10FA90001F02012191404009800000F1E020C0F8E0
:10FAA0000011704700F01F020121914040098000C1
:10FAB00000F1E020C0F8001270474907090E002845
:10FAC00006DA00F00F0000F1E02080F8141D704706
:10FAD00000F1E02080F80014704700002DE9F041AB
:10FAE0004FF48077384602F0FDFD0124104EA50743
:10FAF00048B1384602F0FDFD0120C5F808037470D6
:10FB0000002002F039F94FF48277384602F0EAFD1E
:10FB100000280BD0384602F0ECFD0220C5F808039F
:10FB2000B470BDE8F041012002F026B9BDE8F081D3
:10FB3000B02B002007480021C0F84011C0F8441144
:10FB4000C0F84811C0F84C11C0F80011C0F80411F9
:10FB500004F024BA0010014003480078002801D1C5
:10FB600000F0E2B9704700002830002070B50E4662
:10FB7000144900EB400001EBC0051446E86A183553
:10FB800020B101280FD0022805D113E0284600F04B
:10FB9000FFF9A04201D2002411E022463146284656
:10FBA00000F02EFA0BE0284600F0F2F9A042F4D261
:10FBB0000446F2E73146284600F0F5F904462046AF
:10FBC00070BD00002830002004F036B9074810B599
:10FBD000406830B18047002807D0BDE8104001F0F0
:10FBE0009BB8BDE8104002F093BA10BD90260020EB
:10FBF000F0B5B5480023021D0178101D01254FF016
:10FC0000805406290BD11678360708D10678C6F33A
:10FC10000316032E06D0042E04D0052E02D006298A
:10FC200007D00EE0B4F82463A84FC6F304263E6064
:10FC300002E01678360704D10678C6F30316032EC1
:10FC400002D0062904D00FE0A24FA14E7E670EE03D
:10FC50001678360708D10678C6F30316032E06D0A9
:10FC6000042E04D0052E02D0062907D00EE0D4F8C9
:10FC70004462994FC6F342363E6002E0167836077A
:10FC800004D10678C6F30316032E02D0062906D047
:10FC900011E0924E376827F0807737600EE01678D3
:10FCA000360708D10678C6F30316032E06D0042EB5
:10FCB00004D0052E02D006290AD011E04FF080466C
:10FCC000C6F80C31C6F81031834E361F336002E09F
:10FCD0001678360704D10678C6F30316032E02D031
:10FCE000062905D00CE07C4F032664373E600AE00D
:10FCF0001678360704D10678C6F30316032E02D011
:10FD000006290DD014E0764F05263E60744E7836F5
:10FD10003560734E083633603F263F1D3E6002E07B
:10FD20001678360704D10678C6F30316052E02D0DE
:10FD3000062957D062E06B4E36686B4F3E60694EC5
:10FD4000361D36683F1D3E60664E083636683F1DDC
:10FD50003E60644E0C3636683F1D3E60614E103684
:10FD600036683F1D3E605F4E143636683F1D3E606C
:10FD70005C4E183636685C4F20373E60594E1C3654
:10FD800036683F1D3E60574E203636683F1D3E6048
:10FD9000544E243636683F1D3E60524E2836366833
:10FDA0003F1D3E604F4E2C3636683F1D3E604D4E27
:10FDB000303636684C4F40373E604A4E34363668EF
:10FDC0003F1D3E60474E383636683F1D3E60454E0B
:10FDD0003C3636683F1D3E60424E403636683F1D19
:10FDE0003E6002E01678360708D10678C6F303169F
:10FDF000032E06D0042E04D0052E02D0062907D0EB
:10FE000019E0D4F85812394A01F04F01116002E0AC
:10FE1000117809070FD10078C0F30310032803D02D
:10FE2000042801D0052806D131480168C90702D04D
:10FE30006FF001010160D4F83001062808D1D4F830
:10FE40003401062804D12B48016841F48061016027
:10FE500022487438016841F470010160BFF34F8F8C
:10FE6000BFF36F8F4FF01021D1F80002002803DBA1
:10FE7000D1F80402002822DA1F4A15601F480468DE
:10FE8000002CFCD01524C1F800420568002DFCD0E0
:10FE9000C1F8044201680029FCD013600168002900
:10FEA000FCD0BFF34F8F0D48F0380168144A01F4BD
:10FEB000E06111430160BFF34F8F00BFFDE71249BE
:10FEC00010480860F0BD0000E00F00F04035014030
:10FED0000DF0ADBA00C007403C050040FCED00E06D
:10FEE000105600400404001020C50040E40E0040FD
:10FEF000000400403C17004004E5014000E40140DC
:10FF00000400FA050090D003A42600200448017FD5
:10FF100004480029024901D004F059BA04F0C8B9D4
:10FF20001C2C00200020004010B5124C0220206143
:10FF3000606111A0A061A4F50470E0614FF400704D
:10FF400020620020A06260620BA1A164E062A4F1C3
:10FF50001001E16410212165A0656065E06509A1DB
:10FF6000E01DFFF7CAF908A12046FFF7C6F92020D7
:10FF7000A07110BD283000205465726D696E616CEF
:10FF800000000000525454005345474745520000BA
:10FF90000269C1688A4203D88068401A104400E0B0
:10FFA000501A401E70472DE9F047C468174689462D
:10FFB00006464FF000083069A04201D9051B02E057
:10FFC000B168201A0D1AB0686D1E001BA84200D837
:10FFD0000546BD4200D33D4670682A462044494646
:10FFE000FFF760F9B0687F1B2C44A844A944A042E5
:10FFF00000D10024F460002FDDD14046BDE8F08739
:020000040002F8
:100000002DE9F041C6680446174688468068851B7E
:100010006068BD4206D93044FFF744F9F019E0604A
:10002000BDE8F0812A463044FFF73CF97E1B08EB1F
:10003000050132466068FFF735F9E660F0E7000039
:100040000FB4054B10B503A9044A029800F004F957
:1000500010BC5DF814FB0000FB1F02008826002086
:100060000FB41CB50246002007AC00290BD0491E76
:10007000CDE90021054B6A462146069800F0ECF8D0
:10008000009A002111701CBC5DF814FB8709020066
:1000900002E008C8121F08C1002AFAD17047704751
:1000A000002001E001C1121F002AFBD170470000AF
:1000B0000121202803DA81400548014003E040285F
:1000C00002DA2038814009B10120704700207047D2
:1000D000FC06FFBD2DE9FF5F82B00021DDE90430A1
:1000E000020DDDF840B0034318D044F61050A2F2E0
:1000F000FF3242431514119801281FD0A5EB0B00C5
:10010000401C5FEA000A4FF000064E4FDFF83891BE
:10011000B046504615D5CAF1000413E011980124E9
:100120004AA3012801D16FEA0B010298119AC0E994
:100130000031C0E9024206B0BDE8F09FCBF10000FB
:10014000DFE704460021404A491842EB0450CDE95C
:10015000001012E0E00707D032463B4640464946D1
:10016000FFF7D4F88046894632463B46104619468A
:10017000FFF7CCF806460F466410002CEAD1DDE903
:100180000401DDE90023BAF1000F06DAFFF7BEF83B
:1001900042464B46FFF7BAF805E0FFF7D9FA424668
:1001A0004B46FFF7D5FA04460E460022284BFFF7D0
:1001B00057FB03D84FF0FF30014607E00022254BE4
:1001C00020463146FFF71DFAFFF731FB102409E006
:1001D000002C0ADB0A220023FFF72EF8039B3032A3
:1001E0001A55641E50EA0102F2D1641C039AC4F14C
:1001F00011031444119A012A03D0012208430DD19E
:100200000AE0084304D000204FF0110B119072E770
:10021000A3EB0B056D1E0DE05B4504DD4FF0000206
:1002200005F1010504E003DA4FF00002A5F1010534
:10023000002AECD002981199C0E90231C0E90045CA
:1002400079E70000000014400000F03F300000009B
:100250000000F0430000E03F2DE9FF4F95B09B46C2
:100260008946064600250FE2252877D10024274637
:10027000F84A0121059400E0044316F8013F203BB1
:1002800001FA03F01042F7D130782A2811D06FF02C
:100290002F033078A0F13002092A16D8059A44F0CD
:1002A000020402EB820203EB42021044761C05902A
:1002B000EFE759F8042B0592002A03DA504244F480
:1002C0000054059044F00204761C30782E2816D194
:1002D00016F8010F44F004042A280DD06FF02F0205
:1002E0003078A0F13003092B09D807EB870302EB24
:1002F0004303C718761CF3E759F8047B761C307863
:100300006C280FD006DC4C2817D068280DD06A283E
:1003100014D104E0742810D07A280FD10DE044F4F1
:1003200000140AE044F4801401E044F440147278AC
:10033000824202D104F58014761C761C307866283F
:100340000BD013DC582877D009DC002875D045285D
:10035000F6D04628F4D047281AD19DE118E063284A
:1003600035D0642879D0652812D195E1702873D0F2
:1003700008DC6728F1D069286FD06E280DD06F286F
:1003800006D1B5E073282CD0752875D0782874D0A4
:100390005A46179990476D1C75E1C4F30250022824
:1003A00009D003280DD0D9F8001004280DD00D6015
:1003B00009F1040967E1D9F80010EA17C1E9005210
:1003C000F6E7D9F800100D80F2E70D70F0E719F8A4
:1003D000041B8DF8001000208DF80100EA46012072
:1003E00003E059F804AB4FF0FF3061074FF0000114
:1003F00002D40DE008F101018846B9420FDA8045C8
:10040000F8DB1AF808100029F4D108E008F101011E
:1004100088468142FADB1AF808100029F6D10598BF
:100420005B46A0EB080721463846179A00F094FA7D
:10043000284400EB080507E04DE029E10DE01AF83B
:10044000010B5A4617999047B8F10108F7D25B465D
:1004500021463846179A13E142E00A220092C4F37B
:1004600002524FF0000A022A08D059F804CB032A9E
:100470004FEAEC710AD00DE029E02AE009F107010A
:1004800021F00702F2E802C1914609E00FFA8CFC64
:100490004FEAEC71042A03D14FFA8CFC4FEAEC715D
:1004A000002907DA0A460021DCF1000C61EB0201A9
:1004B0002D2202E0220504D52B228DF804200122F2
:1004C00003E0E20701D02022F7E7904659E00A2135
:1004D00002E010220DE010214FF0000A00910BE025
:1004E00010224FF0000A44F004040827009203E0B1
:1004F00008224FF0000A0092C4F30252022A05D0EB
:1005000059F804CB0021032A08D009E009F10701BA
:1005100021F00702F2E802C1914605E01FFA8CFCC7
:10052000042A01D10CF0FF0C4FF00008220728D557
:10053000702806D0009B83F0100353EA0A0305D00D
:100540000EE040228DF80420012208E05CEA01025E
:1005500006D030228DF804208DF805000222904646
:10056000009B83F0080353EA0A030AD15CEA010204
:1005700001D1620705D530228DF804204FF0010823
:100580007F1E582804D034A003900EA802900DE0DE
:1005900036A0F9E753466046009AFEF74DFE8446C2
:1005A0000398825C0298401E029002705CEA01008F
:1005B000F0D1029806A9081A00F1200A600702D5B6
:1005C00024F4803400E00127574502DDA7EB0A0040
:1005D00000E0002000EB0A01009005984144401A19
:1005E0000590E00306D45B462146179A059800F073
:1005F000B3F90544002706E001A85A46C05D1799E3
:1006000090476D1C7F1C4745F6DBE0030CD55B462D
:100610002146179A059800F09FF9054404E0302020
:100620005A46179990476D1C0099481E0090002962
:10063000F5DC08E0029802995A460078491C0291BC
:10064000179990476D1CBAF10001AAF1010AF1DC7B
:1006500065E1000009280100303132333435363786
:1006600038396162636465660000000030313233FE
:10067000343536373839414243444546000000009E
:1006800000F058F90544761C307800287FF4ECAD72
:1006900019B02846BDE8F08F620700D4062709F19B
:1006A000070222F0070CFCE80223E14603F00048B1
:1006B0005FEA080C02D00FF2702C0DE05FEA045CD8
:1006C00002D50FF2682C07E05FEAC47C02D00FF27B
:1006D000602C01E0AFF2700C4FF0FF3823F00043C4
:1006E000CDF850C065280CD006DC452809D0462836
:1006F0001DD047283DD13DE0662818D067287ED11F
:1007000038E00021112F01DB112000E0781CCDE939
:10071000000106A90EA8FFF7DDFCDDE90F010E9A26
:1007200003910021009207F1010A04914DE04FF07E
:1007300000400097CDE9011006A90EA8FFF7CAFCFA
:10074000DDE90F0203920E9B11990022DDF80CA047
:100750000093049211B9791C00EB010AB7EB0A006F
:1007600004D4C0F1FF3007F1010A0490AAEB07009E
:10077000019044E0012F00DA01270021112F01DD53
:10078000112000E03846CDE9000106A90EA8FFF7C8
:10079000A1FCDDE90F010E9A039100210491009262
:1007A000BA4621070CD40399514500DA8A46BAF1BA
:1007B000010F05DD009AAAF10101515C302908D032
:1007C000B84202DA10F1040F06DA0121CDE9011076
:1007D00015E0AAF10101E9E7002805DC04990144CC
:1007E0000491AAEB000102E0411C514500DD8A465C
:1007F0000499401A401C01904FF0004002902007DD
:1008000004D40198504501DBCDF8048000208DF818
:100810004F0002980DF14F07B0F1004F25D02B206B
:100820000E9002984FF0020800280CDA4042029025
:100830002D200E9007E00A210298FEF719FE3031B4
:10084000029007F8011DB8F10001A8F10108F2DCDF
:1008500002980028EFD1791E0E980870307800F0C9
:10086000200040F0450007F8020D12A8C01B00F15F
:1008700007081498007800B1012000EB0A010198E4
:1008800001EBE07105984144401A401E0590E003D9
:1008900006D45B462146179A059800F05DF805449A
:1008A0001498007818B15A46179990476D1CE003C8
:1008B00024D55B462146179A059800F04DF805446B
:1008C0001CE00498002807DBDDE90301884203DD12
:1008D0000098405C179901E0179930205A469047DC
:1008E000049805F10105401C04900198401E0190F8
:1008F00004D12E205A46179990476D1CBAF1000179
:10090000AAF1010ADDDC05E017F8010B5A46179938
:1009100090476D1CB8F10001A8F10108F4DC5B46BA
:100920002146179A0598ABE62D0000002B00000029
:10093000200000002DE9F041044600251E46174620
:10094000880404D405E039462020B0476D1C641E9D
:10095000F9D52846BDE8F0812DE9F041044600258F
:100960001E469046C80301D5302700E020278804A2
:1009700004D505E041463846B0476D1C641EF9D5E4
:100980002846BDE8F0814A68002A06D00A68531C50
:100990000B6010704868401E486070472DE9FC47A6
:1009A000002517880646158090F82D0014468946C4
:1009B00030B13A462146484600F0A4FD050009D171
:1009C000B0784FF00C0A18B32088C846001DB84212
:1009D00002D95046BDE8FC87684679DF0028F9D186
:1009E0002088032108F8001020881921401C80B2BB
:1009F000208008F800102088401C80B2208000EB86
:100A00000801BDF8000003F05AFD21880844208049
:100A1000F0780222C8B1218896F9033001F1030C65
:100A20004846BC45D5D8425421884FF0010C491C9A
:100A300089B2218000F801C02188491C89B2218037
:100A400009F801302088401C20807068B8B12188E6
:100A500090F9003001F1030C4846BC45B9D8425426
:100A600021880A22491C89B2218042542188491CCC
:100A700089B2218009F801302088401C208030890B
:100A800050B1CDE900474B460622022106F108008D
:100A900003F062FD05009DD1308A50B1CDE90047D9
:100AA0004B460722032106F1100003F055FD050017
:100AB00090D1308B50B1CDE900474B46152214211F
:100AC00006F1180003F048FD050083D1306A30B10B
:100AD0003B462246494601F0B9F90500DBD1706A70
:100AE00030B13B462246494601F000FD0500D2D117
:100AF00096F82C0038B13B4622464946304603F072
:100B000023F80500C7D1307838B13B462246494624
:100B1000304601F01DFD0500BDD128465AE7000012
:100B2000134A0021535C0BB1012203E0491C062942
:100B3000F8D300220F49012806D0022809D0032843
:100B40000CD0042812D10DE0487810B10AB1012070
:100B50007047887810B10AB102207047C87808B190
:100B600003207047087908B10420704700207047BF
:100B700035260020C02A002010B5012202210020C5
:100B800000F046FF08B1072810D1072202210120FA
:100B900000F03EFF08B1072808D100210A220846CC
:100BA00000F036FF08B1072800D1002010BD00007A
:100BB00030B5A7B03C2101A8FEF78DFB02208DF8CF
:100BC000040000248DF8064005208DF807003C2124
:100BD00010A8FEF780FB0F4801251590ADF8505086
:100BE00020211FA8FEF777FB402023908DF87F502F
:100BF000B4202490084B1FAA10A9009401A800F06B
:100C0000B5FA08B100F088F8012000F0A9FA27B081
:100C100030BD0000FE250020A9340200022000F0B3
:100C2000BBBD000070B50024064D06E068680121D8
:100C300010F8340001F00CFE641C28788442F5D3CF
:100C4000002070BD50260020F8B515460C4606461B
:100C5000052A01D20720F8BD01F0E0FE18B901F025
:100C6000AFFE0028F7D1104900204E600C70C1E99A
:100C700002500E4D08610DE006EBC400696800915A
:100C800081788DF801100078094A694601F032FE3A
:100C90000028E0D1641EE4B2EED2BDE8F840054A77
:100CA0000021024800F06CB850260020A84602003F
:100CB000B9200200351F02000AA1012002F090FABB
:100CC0000CA1032002F08CFABFF34F8F104801688B
:100CD000104A01F4E06111430160BFF34F8F00BF80
:100CE000FDE700003A4552524F523A466174616C3A
:100CF0000D0A00003A494E464F3A4869742077651C
:100D0000616B2068616E646C65720D0A0000000002
:100D10000CED00E00400FA050EB500210091CDE9CC
:100D200001106A4644F20100FFF7C6FF0EBD10B580
:100D30008268C368934203D001F04CF9002010BDD3
:100D4000052010BD29B112B1531E134203D0092052
:100D500070470E2070470160838000218160C16070
:100D60000846704710B58268C3689A1A83889A4209
:100D700003D801F039F9002010BD042010BD000097
:100D8000074B9B7823B12AB120B10068037C1BB1CB
:100D90000820704707207047417442610020704767
:100DA0005C2C002070B502F0DBFD104800240B2104
:100DB000047044700E4D817014206C602C706C7047
:100DC000FEF744FE07211420FEF777FE1420FEF7FD
:100DD00053FE0848046007211120FEF76EFE054807
:100DE000001F0068A860002070BD00005C2C00207F
:100DF00064260020081501402DE9FC47DFF87890B3
:100E000099F8023073B368B3052902D20720BDE810
:100E1000FC87436933B3437C012B25D0002704466C
:100E20000025884616468DF80050684600F0CAF83E
:100E300001A803F079FBC8B1012101700F4944609A
:100E40000968C0E90218C0E904769DF8040089F831
:100E500001009DF8000000F0D9F81420FEF722FEF2
:100E60002846D4E70820D2E70F46D8E704259DF8A6
:100E7000000000F0CBF8F3E75C2C002004150140E3
:100E80000649897839B130B1416921B10021017435
:100E9000022103F05FB80820704700005C2C00209E
:100EA00070B50A4E01460A48B578FFF740FF044680
:100EB0004DB10020B070711C0122C81D01F0F4FD7D
:100EC00008B1FFF729FF204670BD000078260020FA
:100ED000682D0020F0B5284E89B01F460D0004464D
:100EE00072603BD0A888296882B22448FFF72AFFA5
:100EF000002834D1A889A96882B220481030FFF7B1
:100F000021FF00282BD120221D496846FEF7CAF98F
:100F100060690690207C00B101208DF814008DF8E6
:100F20001C70607C00B10E208DF81500E068029006
:100F3000A068039020680190606800900E48114AF4
:100F40006946083001F07CFD002808D1B0702068A7
:100F5000401C04D09DF81D0018B106E0072009B020
:100F6000F0BD0548083001F0F7FD03490122491C96
:100F7000C81D01F099FDF2E778260020682D0020B9
:100F8000B04602001142020010B501460B48FFF7BF
:100F9000E9FE040010D10A4801F028FF60B90849B1
:100FA00006480839FFF7C3FE30B905490122083960
:100FB000034801F095FE0446204610BD782D002020
:100FC0008026002030B5EFF3108172B60D4A946888
:100FD000012324B10370002900D162B630BD9360B3
:100FE0004FF0E023D3F88051074C25401560C3F83B
:100FF0008041D3F8844154605A17C3F884210022F9
:101000000270E8E7882D0020FC06FFBD0B498A68C6
:10101000002A11D000280FD1EFF3108072B60B68B0
:101020004FF0E022C2F800314B68C2F804310022D0
:101030008A60002800D162B670470000882D002029
:101040002DE9F041064608680C46411C4FF0A047C8
:101050004FF0010506D005FA00F1C7F80815206821
:1010600001F00FFF6068411C02D0002101F000FF79
:101070003079204901EB4010A169007F00283068D9
:10108000C0F8241525D0607D227D31681043C1F859
:101090006C05D4E900123068C0F80C15C0F81425AE
:1010A00024E0A068411C02D0002101F0E1FEE068CC
:1010B000411C05D08540C7F80855E06801F0E1FE05
:1010C000D4E902123068C0F80825C0F81015BDE850
:1010D000F081607D217D32680843C2F86C05D4E957
:1010E00000123068C0F81425C0F80C15207D0128C6
:1010F000D7D0ECE71C2C0020F0B50C4693B01F2194
:101100000726ADF80010ADF80410002750B1C178E3
:1011100049070DD56A4602A9FFF740FC002808D10F
:1011200002AD02E00025ADF800706CB1E07810B1BE
:10113000304613B0F0BD01AA0AA92046FFF72EFCE5
:101140000028F6D10AAA02E00022ADF80470BDF82A
:101150000400C3B2BDF80000C1B2284672DFE8E760
:1011600001490871704700001C2600202DE9F04756
:101170001F46DDF8208013468946040043D0EBB3B8
:10118000404D012000262870EE70202219463E486E
:10119000FEF788F82E71C5E904784FF6FF70688174
:1011A000AE613948AE83AE773C212030FEF793F82C
:1011B0003548217820300170A1788170E178C170C4
:1011C000617841703049D4E90423C1E90C23D4E9A2
:1011D0000223C1E90A23D4E90623C1E90E23616A87
:1011E000E1B100F13C0100F1480241628A60636AAA
:1011F0001B880B80616A436A898800E003E099805C
:101200000021436A07E00E20BDE8F087656AAD68FB
:101210006D5C5554491C9D888D42F7D8A16AD9B19F
:10122000194A9432A2F10C018A608162A36A9B88F8
:101230008B80A16A836A098819800021836A04E08F
:10124000A56AAD686D5C5554491C9D888D42F7D8E0
:1012500094F82C1080F82C10216A49B109490C31FE
:101260000162226A52884A80216A026A09881180D2
:10127000616801B141604946BDE8F047024820304D
:10128000FFF73ABF1C260020C02A002010B50188B5
:10129000144C102918D011291CD01B2919D1007AFF
:1012A000002816D1E0780521401CB0FBF1F201FBCB
:1012B000120000BF00F036F800280AD0616900294A
:1012C00007D0BDE810400847C17B012901D18088C3
:1012D000608110BD0021A171808861898842F8D1A8
:1012E0000120E7E71C26002010B574DF0B4C01201D
:1012F0000B49A071002020720620C8700021084808
:10130000FFF7FAFE002807D1E07800F00BF810B1E3
:10131000616901B18847002010BD00001C26002033
:10132000E02A00202DE9F0413D4C804686B020782F
:1013300048B184F8038004A800F066FE04980126F2
:1013400028B1667068E0082006B0BDE8F08100258D
:10135000A561344FA583A577787810B1E07801288E
:1013600006D0B87858B1E078012801D0022806D11B
:10137000216919B166710820884700E0657140460F
:10138000FFF7CEFBE070216939B1032801D00428B2
:1013900003D1387808B1A07990B1E5710095029534
:1013A000019503958DF800508DF808501C48E178A0
:1013B0001830052925D2DFE801F03108111D210080
:1013C0002572E67107208847E8E7A67001908DF83E
:1013D0000060ADF80C50ADF80A5014E00221A17085
:1013E00001908DF80060B889ADF80C003889ADF82F
:1013F0000A0008E0684602F0EBFB02E0684602F0F3
:101400000BFCE07820B12179684673DF00289BD17E
:10141000216909B1A0788847002095E7A570F7E712
:101420001C260020C02A002070B5054601461C225B
:101430000F48FDF737FF0F4C00262670286830B1A3
:10144000016861604068A060201D7ADF02E0094801
:10145000001D7BDF00280AD14FF6FF7060806670A8
:10146000BDE87040044A00210448FFF789BC70BD04
:10147000942B00203C260020C9440200784602003C
:1014800070B51E4C068800231B49E289102E15D02A
:101490001B4D112E1CD0122E29D0502E17D130F8F2
:1014A000061F914213D14189022910D10C3000F05E
:1014B000FAF888B1BDE8704000F00EBD84884C8019
:1014C0000469CC60406908614B70002AF2D070BD9D
:1014D0004FF6FF7048804B702868FFF7D1FC00285A
:1014E000F5D0A1690029F2D0BDE8704008478268B4
:1014F000CA60C0680861DDE73C260020942B00200C
:10150000784602007CB5054608880C4609309042B2
:1015100001D90C207CBD68466DDF0028FAD12188F6
:101520000820685420881B21401C80B22080295448
:101530002088401C80B220802844DDF80110016022
:10154000BDF8051081802088801D80B220809DF824
:101550000010490800D0012129542088401C208017
:1015600000207CBD10B50446FFF78AFF21460948DC
:1015700001F066F8074821461C3800F03FF8204685
:1015800001F0A4FF2046FFF781FE2046BDE8104091
:1015900000F08AB9382A002030B5174B0D460400F8
:1015A0000FCB85B08DE80F0023D015B34FF6FF7039
:1015B000A0822868A0610020A0752146684662DFED
:1015C000002814D120788DF812000120ADF8100009
:1015D000A21C04A9A0DF002809D12946204602F058
:1015E000F6F9002803D12946204602F03BFD05B05C
:1015F00030BD0E20FBE700009446020010B5002825
:1016000022D0002920D00A88102A18D0112A18D0F8
:10161000502A19D104468A1DC8882389123198425C
:1016200002D15389022B10D0A38998420CD1A3690F
:10163000002B09D052892046BDE810401847898800
:1016400001E04FF6FF71818210BD084600F02BF8D3
:1016500000B10120A07510BD07B584B068B1828AC1
:10166000A2F57F43FF3B0AD0827D42B1BDF818202E
:101670009B2A06D9072007B000BD0E20FBE70820F3
:10168000F9E700220092019202920392828803916C
:1016900006A90291ADF8002001218DF80210808A80
:1016A0006946A6DFE7E7007800F001007047000018
:1016B00030B52B4885B0002300680490D822294912
:1016C00004A802F081FB08B1FFF726FB002468465E
:1016D000009402F0D7FA08B1FFF71EFB0125019430
:1016E0008DF804508DF80540029403948DF806405F
:1016F00001A94020009A69DF08B1FFF70DFB0194B2
:101700008DF804509E20ADF806000294039401A9C0
:101710002320009A69DF08B1FFF7FEFA01940294D2
:101720004FF4A0708DF80450ADF8080003948DF8C4
:10173000065001A92020009A69DF08B1FFF7ECFAF2
:10174000684602F0B3FA08B1FFF7E6FA064802F07D
:10175000A3FA002801D0FFF7DFFA05B030BD000082
:1017600028460200A8260020651502000149085CF1
:1017700070470000484602000649095C4FF0A0404F
:10178000D0F81005C84010F0010000D0012080F012
:10179000010070474846020007490B5C4FF0A0412A
:1017A000D1F804250120984020EA0203C1F8083549
:1017B0001040C1F80C057047444602000249085C1D
:1017C000012101F08ABB0000444602000249085C86
:1017D000002101F082BB0000444602000649095C7A
:1017E0004FF0A040D0F80405C84010F0010000D030
:1017F000012080F001007047444602007CB50024BF
:10180000084E25460122305D0095002311460195C2
:1018100001F0F8FA641C042CF4D3BDE87C4000F01D
:1018200003B800004446020010B500242046FFF72C
:10183000C5FF641C042CF9D310BD10B5002420464C
:10184000FFF7C4FF641C042CF9D310BD10B5024689
:10185000064B4FF0FF3000215C5C944201D10846FA
:1018600010BD491C0429F7D310BD000048460200F2
:1018700070B50C4E0C004FF0000530600BD001200D
:1018800000F0A2F808B1022004E0002000F09CF86B
:1018900000B10B202070706810B9FFF76DF9054694
:1018A000284670BD1426002010B51A4C01886068C7
:1018B00010290ED011292BD1401E606028D1FFF7CE
:1018C0005BF9002824D02168002921D0BDE8104010
:1018D0000847D0B900210122084600F099F808B164
:1018E00007280FD107220221012000F091F808B14A
:1018F000072807D104220221002000F089F820B136
:10190000072802D0216801B188476068401C6060E8
:1019100010BD00001426002010B5002000F0CCF906
:1019200008B1062806D1012000F0C6F908B1062842
:1019300000D1002010BD00002DE9F0470D46814682
:10194000FFF784FF0446042836D2DFF874801B4872
:101950001C4EA8F10C0725B3012D0ED0022D2BD162
:1019600004EB440030444578002D25D0B9680029A7
:1019700022D02846BDE8F047084704EB4401755CD7
:101980000E44717849B10E4A4FF40041093A80681B
:10199000FFF732FA08B987F80390B17808F8041015
:1019A000E2E78068FFF76CFA04EB4401314418F871
:1019B00004008D78A842D7D0BDE8F0874C460200DD
:1019C00010260020942A0020FFF7D6BE01460F48BB
:1019D00010B54088042907D007290ED00A2914D150
:1019E000BDE8104002F03AB9132176DF0BE0002881
:1019F0000BD0BDE81040FFF78FB9A0F57F41FF394C
:101A000003D1FFF771FC0828F1D110BDF8250020A3
:101A100070B50023042810D20D4D00EB4004012ABC
:101A200002D101290CD00022094E00EB40003044C5
:101A300061B1012906D0022906D00723184670BDDE
:101A40000E30C2B22A55F9E74270F7E78270F5E727
:101A5000942A0020044A014600201279D20702D0BD
:101A6000084600F04DB870470426002070B50646C1
:101A70001E480024C0E90161B00720D500250122DD
:101A800011462846FFF7C4FF6D1C0446042D02D200
:101A9000002CF4D013E094B940F26662042114489B
:101AA000FFF7D2F804000AD1FFF7BCF8040006D112
:101AB0000F48104A0021001FFFF762F90446F007A3
:101AC00001D0FFF79BFE74B909480B4A00210C387E
:101AD000FFF756F9040006D10548084A01210838E5
:101AE000FFF74EF90446204670BD00000426002092
:101AF00058460200DB1C02004D2202001D0C0200B1
:101B00002DE9F05F6A4C054600266078B34618B1AF
:101B100084F801B000F082FB664F4FF47A694FF40D
:101B2000C87A4FF00108182D62D2DFE805F0AC0C3E
:101B30000C31404D62676B746B74BE7D7D7D7D7D25
:101B4000ACAFB2B5BEBE0020FFF748FE00284FF094
:101B5000000008D0FFF732FE022D02D14FF4E16001
:101B600008E0484606E0FFF731FE022D01D1C8200B
:101B700000E05046410CC0034FF4FA72801841F166
:101B80000001257052000023FDF756FB01462AE0B4
:101B90000020FFF723FE00284FF0000004D0FFF7DD
:101BA0000DFE4FF44870E5E7FFF710FEDFE7002079
:101BB000FFF714FE00284FF0000002D0FFF7FEFDF3
:101BC000CFE7FFF703FED4E70020FFF707FE00286A
:101BD0004FF0000002D0FFF7F1FD01E0FFF7F6FD46
:101BE000257041F69A1100223868FFF705F906467C
:101BF00046E00020FFF7D0FD257008E0002051E00E
:101C000025703DE084F801800120FFF7C5FD00222A
:101C100040F6CD41E8E784F801800120FFF7BCFDE4
:101C200000224FF48041DFE77868FFF729F9064684
:101C3000D5F1110000D02EB10220FFF7BFFD84F8CE
:101C400002B01DE0012816D980B2C8214843C1174F
:101C5000C90341EA5041C0034FF4FA72801841F1C0
:101C6000000152000023FDF7E7FA014600227868E0
:101C7000FFF7C2F806460220FFF7A8FD84F80280AD
:101C80003046BDE8F09F00F0C9FAB9E700F0C6FAA7
:101C9000B4E700F0C3FA04E000F0C0FA0020FFF758
:101CA00095FD0120FFF792FDAAE7FFF7C6FDA7E724
:101CB000042600204C46020010B5FFF757FD032113
:101CC00001F0E9F8002010BD002901DA002070477A
:101CD0000268114401600120704700780221FFF77B
:101CE0002BBE10B542EA0121029C43EA012144EADD
:101CF0000121016010BD000600EB014000EB022055
:101D00001844704705494FF0FF32082841F8202059
:101D100002D3084480F8482070470000C42B0020FC
:101D2000F0B54FF0FF3512B10023082601E008237B
:101D30000C260C4C05E000BF54F823707F1C04D027
:101D40005B1CB342F8D32846F0BD26185DB286F876
:101D5000305044F82310002AF5D1E11881F84800EA
:101D6000F1E70000C42B00200249084490F930003C
:101D700070470000C42B002070B5084C050009D046
:101D800010342168002907D0086820604968284677
:101D90008847F6E70834F4E770BD0000B02B002058
:101DA0002DE9F05F26484168F1B3DFF898B00E687E
:101DB0008146DBF8004087688078E11B21F07F4591
:101DC000ED1CB0B9DFF880804FF48030C8F84403D0
:101DD000C8F804031120FDF739FE1120FDF74CFE71
:101DE0004FF0010AC8F800A02F2000F08BFC89F802
:101DF00002A0B54200D23546124BE8193C3320F020
:101E00007F401860DBF800105A46091B21F07F4123
:101E1000001B20F07F40C91C81420FD91068186058
:101E20002F2000F06FFC00E004E0BDE8F05F11201F
:101E3000FDF738BEBDE8F05F01F092BDBDE8F09F50
:101E40006426002004150140001001402DE9F041F6
:101E500017880646B81D14460D46984202D90C2034
:101E6000BDE8F0813188072206290AD34FF4486C77
:101E70004FF6FF73614501D9994202D17088062857
:101E800001D21046ECE7604501D99842F9D1994258
:101E900003D0984201D08142F3D80520E85520882C
:101EA0001221401C80B2208029542088401C80B21E
:101EB00020804119308802F002FB2188084480B25A
:101EC00020804119708802F0FAFA218808442080A5
:101ED0000020C5E7FEF720BFF8B5134800F090F9E1
:101EE000114D0026114C0C3D30B16169B9B1012092
:101EF0008DF80000684611E0287820B1616971B161
:101F00008DF80060F6E7687858B1A16808480022AB
:101F10000068FEF771FF10B1A16901B188472E700A
:101F2000F8BD6168F2E7000048260020942B0020ED
:101F3000784602002DE9F04100260125144C22E0EC
:101F40006068226900EBC607387805FA00F1114293
:101F500017D08A43226100F029FD02463878E368F1
:101F600005FA00F1194002FA00F3994209D1797893
:101F7000012901D0012100E0002151407A6802B11D
:101F80009047761CF6B220788642D9D3BDE8F0811E
:101F9000502600200E4910B50A784C780023A24242
:101FA00012D0521CD2B20A70022A00D10B70084A19
:101FB0000B780C3252F8232002608868104420F01D
:101FC0007F408860012010BD0360002010BD00002C
:101FD00064260020826883881A4003689A5C0A702D
:101FE0008168491C81607047C26883881A40036811
:101FF0009954C168491CC160704710B50446C0B20D
:10200000FEF7C2FF204610BD20B10349496E0160B2
:102010000020704703207047942D002010B504461F
:102020000D484A8843889A420DD10A88A2F5206358
:10203000773B08D18988C91E8AB28280134607A1DE
:10204000032001F0D8F823886288BDE810400D49CC
:10205000042001F0D0B80000F82500204150503A8B
:10206000494E464F3A44617461206C656E20697335
:102070002073657420746F203078255828256429D2
:102080000D0A00005847020010B50949094800F040
:10209000C1FA08B1FEF740FE4021064800F0AEFA52
:1020A000002803D0BDE81040FEF736BE10BD00008A
:1020B0001D200200382A00202DE9F041124E07466B
:1020C0000125BD403068FEF7DBFE00280DD10F4C26
:1020D0002069284207D1384600F068FC0028E068F3
:1020E00005D0284304E0A8432061BDE8F081A8435F
:1020F000E060206928432061A1683068BDE8F041B4
:102100000022FEF779BE0000A846020050260020FB
:10211000F8B51C4C2078002832D02069002658B130
:102120000025607800282BD1684648DF052805D0B7
:1021300030B1FEF7F1FD0AE00125F2E7012606E0E5
:10214000009800F061FBA16809B1009888479DB92B
:102150006078002814D16088ADF800006946E06816
:1021600061DF052803D020B1FEF7D6FD04E001258C
:1021700002E0D4E903018847002ED2D0002DE6D03A
:10218000F8BD00009026002070B50E460446007988
:1021900018494FF4A27501EB4010017F2068A1B1EE
:1021A0004FF4887101F065F84FF49071206801F0E8
:1021B00060F84FF49271206801F05BF829462068BE
:1021C00001F057F80C49206809E04FF48E7101F0D6
:1021D0003FF82946206801F03BF808492068C0F81C
:1021E0000413206800F031FB3146BDE8704000F078
:1021F00010BB00001C2C0020100302008000020015
:10220000054940880A88904204D34988884201D809
:102210000120704700207047402600200A4810B572
:10222000807860B1002401E0022C06D02046FFF740
:10223000C5FA641C042CF7D310BD0324F6E7BDE8EF
:102240001040FFF7F1BA000004260020034801798E
:10225000C90702D00078FFF753BC7047042600205E
:102260009E21018017214180002101714171A2212D
:1022700081711B21C17170472DE9F047394E00274C
:1022800080463D46DFF8E090D6F804A057E003D042
:102290000446D0F81C8035E099F8002002EB42019A
:1022A000521CD2B289F8002009EBC10199F8023022
:1022B000091D9A4201D189F8005048680A780446FD
:1022C000012A12D0022A02D0032A3BD108E001F0F1
:1022D00011FE00B10127257434E00574C06900E0E7
:1022E00070680028F9D170602CE0207C50BB8868B1
:1022F0006060C868A0600869E0604869A061F07823
:1023000000B165606268B168184B501A20F07F40D8
:10231000984202D2A168084406E0881AA16820F019
:102320007F40814202D9081A206000E02560656084
:102330000120A56020742046E56101F0BDFDB8F1E3
:102340000000A4D199F8001099F801008142A3D1AE
:1023500017B97168514502D00120BDE8F08700200F
:10236000FBE70000642600205C2C0020FFFF7F00BC
:102370008AB0FEF717FD08B1FEF7CEFC18224549DA
:102380006846FCF78FFF4448069044494FF480703C
:10239000CDE9070109900723414A06A96846FEF7DF
:1023A00099FD08B1FEF7B8FC002000F03BFF08B132
:1023B000FEF7B2FC3B490320FFF758FB08B1FEF7DC
:1023C000ABFC69460020FFF753FA08B1FEF7A4FC06
:1023D000FFF76EF99DF8080033A120F00F00401CB4
:1023E00020F0F00010308DF808000B2202A87CDFEE
:1023F00008B1FEF791FC002400941020ADF8000015
:102400003C200194ADF80200ADF804404FF4C870D0
:10241000ADF8060068467ADF08B1FEF77DFCFFF7ED
:1024200033FE2448009069462348FFF7B5F808B109
:10243000FEF772FCFEF7BCFB1C216846FCF74BFF65
:102440004FF42030CDE900404FF47020029003207B
:102450008DF80C001948059019480690ADF80E400B
:102460008DF810406846FEF7DFFF08B1FEF754FC18
:1024700014A0FDF7E5FD17A1032000F0B1FE032035
:10248000FEF750FF00E03EDF0028FCD0FEF744FCE2
:10249000F9E700002C4602001B2800201B29002021
:1024A0005D410200CD1902004E6F726469635F5591
:1024B00041525400813202001C2A0020FD350200E6
:1024C000D51E02000D0A5541525420537461727496
:1024D000210D0A004150503A494E464F3A5541525B
:1024E00054205374617274210D0A000070B51446B3
:1024F00082880E4605462088111D0144921C99428F
:1025000001D8FE2A01D90C2070BD521C32542088FB
:10251000FF21401C80B2208031542088401C80B2B2
:1025200020808119288801F0CAFF2188084480B2E0
:102530002080AA8842B1A96841B13044FCF7B2FEBC
:102540002088A98808442080002070BD072070BD25
:10255000F8B50E46017814460546012901D1687880
:1025600030B12088821C9A422DD8012902D006E081
:102570000720F8BD69780144891C994223D8181AAC
:10258000801E87B2ADF800702188B01C08446946EF
:102590007DDF0028EDD12878022805D1BDF8001094
:1025A000B94201D809210AE00821012805D168783B
:1025B000B84202D8ADF8000001E0ADF80070BDF8F7
:1025C0000000FE2801D90C20F8BD2288401CB05420
:1025D0002088401C80B2208031542088401C2080FC
:1025E000BDF80010084420800020F8BDC20800F0AB
:1025F00007030120895C98400840704728B1A1F189
:102600001702882A03D3072070470E2070470180E5
:102610000020704770B5040010D09E20A16120807A
:102620006080A2202071002504EBC500801DFFF70B
:1026300017FE6D1C022DF7D3002070BD0E2070BD5B
:1026400070B58C880546022C46D2088822281ED0F8
:1026500006DC102809D011280BD021281ED11AE041
:102660003A280CD0552819D10DE0284600F0D4FFA7
:1026700014E005EBC400801DFFF7F2FD0EE02846D4
:1026800001F026F90AE0284601F0DCF806E02846C9
:1026900001F018F802E0284601F0A8F805EBC4059F
:1026A000A87A002818D0E98820469EDF020007D0CB
:1026B000112A11D0BDE870400849012000F094BDF6
:1026C0000020A8720120E872EA882346BDE8704025
:1026D0000349042000F08FBD70BD0000F0480200E7
:1026E000F047020000F180400068002800D001207F
:1026F000704708B500F1804000210160006800903B
:1027000008BD000000283ED01F49204A096800BFCC
:1027100000BF00BF00BF00BF00BF00BF00BF9142AD
:102720002FD000BF00BF00BF00BF00BF00BF00BF71
:1027300000BF00BF00BF00BF00BF00BF00BF00BFA1
:1027400000BF00BF00BF00BF00BF00BF00BF00BF91
:1027500000BF00BF00BF00BF00BF00BF00BF00BF81
:1027600000BF00BF00BF00BF00BF00BF00BF00BF71
:1027700000BF00BF00BF00BF00BF00BF00BF00BF61
:1027800000BF401EC3D17047A42600200024F400DF
:1027900070B50F4C0025207808B1852516E0002182
:1027A000A16061602161E1604FF0E020D0F800019C
:1027B000012610F0010F03D10721002000F029F8B5
:1027C00001F034FB08B9034806602670284670BD46
:1027D000B02B00201805004038B500208DF800000F
:1027E0006846FEF7EFFB074C207808B9FFF7D0FFEB
:1027F000E068401CE0600120A0709DF80000FEF73A
:1028000005FC38BDB02B0020002801D1FFF7B4BA79
:1028100070474907090E002806DA00F00F0202F19E
:10282000E02282F8141D03E000F1E02282F8001497
:1028300000F01F02012191404009800000F1E020DA
:10284000C0F88012C0F800117047000B40B270470A
:102850002DE9F0418846054601F06AF8234E00282C
:1028600028461AD0FFF780FA304490F848008009D3
:10287000032802D001280ED007E04FF0A040D0F886
:102880001005E84010F0010F05D003212846BDE8EF
:10289000F04100F011BB0221F8E701F055F80028E3
:1028A00022D02846FFF760FA04464FF4807000EB10
:1028B00084000F4F81B207EB8400D0F8102542F05E
:1028C0000102C0F81025084600F026FBB8F1000F01
:1028D0000AD02846FFF748FA56F82000002803D00F
:1028E0000120A040C7F80403BDE8F081C42B0020FC
:1028F000006000402DE9FC41DFF8A480044608EBAD
:102900000400002790F930001346C0170E46401C03
:1029100001D0082741E0F27819462046FFF700FA77
:102920000546401C38D0B07850B14FF0A04000EBC5
:102930008400D0F8001721F00201C0F8001707E06A
:1029400000217378204600910A46019100F06CFA4C
:10295000F078C0B11348317800EB8500D0F810252D
:10296000114B1A40C0F810254FF4F8524FF4403381
:1029700002EA042203EA01410A43D0F810150A438F
:10298000C0F8102509E008EB0500327810F8481F60
:1029900041EA8211017000E004273846BDE8FC815D
:1029A000C42B002000600040FFE0FCFF4FF0A0417E
:1029B000D1F81015C14011F0010000D0012070477E
:1029C00070B5144D95F8540008B1082070BD002072
:1029D000411E2A18401CC0B282F830102028F8D3BB
:1029E00000242046FFF78EF9641CE4B20C2CF8D3C7
:1029F00007210620FFF70DFF4FF4BE7000F08CFAA0
:102A000005494FF00040C1F80403012085F8540047
:102A1000002070BDC42B002000600040034890F8E7
:102A20005400002800D0012070470000C42B002073
:102A30000121B1EB507F01D1012070470020704788
:102A40002DE9F04105460079164F904607EB4014FA
:102A50000E46E07E10B10820BDE8F081707F20773F
:102A60002846FEF7EDFA5FEA0800606031692160F0
:102A700003D0317F2846FFF787FB287907EB40100A
:102A8000007F0028286801D0082100E00421C0F858
:102A900000150020E0752076A0750121E176A07672
:102AA000DAE700001C2C00202DE9F04105460079F2
:102AB000284E904606EB40140F46207F18B108467A
:102AC000FFF7B6FF80B1626800234FF404704FF443
:102AD000017172B12A7906EB4212127F002A2A682C
:102AE00005D0C2F8080304E01020BDE8F081C2F868
:102AF0000813E27DB2B1227E7AB162685AB12A79B6
:102B000006EB4212127F1AB12968C1F8040302E0F1
:102B10002868C0F804131120E7E72761012384F82F
:102B2000188005E084F817800020E7606076207642
:102B30002879424606EB40103946007F0028284697
:102B400003D0BDE8F04100F073B8BDE8F04100F0FB
:102B50001BB800001C2C002070B504460079094DFC
:102B600005EB4010017F00290AD1807E002807D1A3
:102B7000204600F089FF2179012005EB411188767C
:102B800070BD00001C2C00202DE9F05F0446007988
:102B9000264901EB4015A87E184302D1204600F0DB
:102BA00073FF68680028206806D04FF40171C0F8F0
:102BB00004130020BDE8F09F4FF4A276314600F0E8
:102BC00047FBB1464FF4927A4FF4847B514620681C
:102BD00000F039FB06465946206800F034FB804679
:102BE0004946206800F02FFB074648EA07003043BB
:102BF000ECD056EA070007D12946206800F0CEFE47
:102C0000E87D697E8842E1D80020E8750EB1032096
:102C1000D0E70FB10F20CDE7A97E01200029216860
:102C200001D00860C5E74860C3E700001C2C002005
:102C30002DE9F05F894604464FF488759A46904620
:102C400000260068294600F014FB4FF4A2773946AD
:102C5000206800F00EFB2068C0F83495C0F8388575
:102C60002068BAF1000F14D0D0F8001241F0200112
:102C7000C0F800122179DFF8648008EB4110406849
:102C800050B120684FF40471C0F804133046BDE819
:102C9000F09F01210160EDE7AA46B9464FF4927B0F
:102CA0005146206800F0E0FA07464946206800F0E7
:102CB000DBFA05465946206800F0D6FA014647EA95
:102CC00005000843ECD02379002208EB4310C275BD
:102CD00001B10326002DD9D00F26D7E71C2C0020E8
:102CE0002DE9F047054600793F4E904606EB40142B
:102CF0000F46207F18B10846FFF79AFE30B12846EC
:102D000000F074F820B11120BDE8F0871020FBE737
:102D100084F81680A7600027A78228794FF0010861
:102D200006EB40143E46207F0028286825D04FF44B
:102D30009079494600F09DFA4FF4AC7A51462868E4
:102D400000F097FA2868A17DA268C0F84425C0F871
:102D500048152868C0F808806068F0B949462868B6
:102D600000F082FA80465146286800F07DFA58EA61
:102D70000001F3D058BBA7750FE04FF48E7A51468F
:102D800000F066FA2868C0F808802146286801F03B
:102D900059F961684FF4807089B13046B4E7514603
:102DA000286800F050FA10B9A08A4845F7D1A08AE7
:102DB000484505D02146286801F044F900E08146E5
:102DC000A08AA17D8842EAD3A08A484501D10F2676
:102DD000D1E75146286800F036FA0028F9D0286873
:102DE000C0F80C80C7E700001C2C002000790449C3
:102DF00001EB4010807D002800D0012070470000CA
:102E00001C2C002070B541EA4201DDE904564FF068
:102E1000A04441EA830141EA052104EB800041EA34
:102E20000641C0F8001770BD70B541EA4201DDE906
:102E300004564FF0A04441EA830141EA052104EB26
:102E4000800041EA0641C0F8001770BD70B541EA44
:102E50004201DDE904564FF0A04441EA830141EA12
:102E6000052104EB800041EA0641C0F8001770BD5F
:102E70001CB500220B46009211460192FFF7E6FFB7
:102E80001CBD1CB5002100910B4601220191114689
:102E9000FFF7DCFF1CBD4FF0A04202EB8000D0F832
:102EA000002722F44032C0F80027D0F8002742EA79
:102EB0000141C0F8001770474FF0A04202EB8000BC
:102EC000D0F8002722F44032C0F80027D0F80027BD
:102ED00042EA0141C0F80017704701224FF0A043B9
:102EE000824011B1C3F808257047C3F80C2570471C
:102EF00018B5084B6C4601441B68009306E000BF00
:102F000054F82030D3F81035401C08C28142F7D85D
:102F100018BD0000A4460200034908B5084400217A
:102F200001600068009008BD006000400249405800
:102F3000012800D000207047006000400048704722
:102F4000692F020070B5074D0446287810B16878E3
:102F5000844204D0FCF700FE012028706C70002031
:102F600070BD00008C2600202DE9F04FC1B017463F
:102F70004FF00002080040924D994B9A1E4602EB1A
:102F8000010A01D00A2100E0002188466D46AEB951
:102F9000294640AA01F03CF800286FD03846FCF7DB
:102FA000A5F9C22800D9C2200446409822462844E8
:102FB0003946FCF777F94098204440904FF0200BB9
:102FC000409901EB080231320DEB01040DEB0205D3
:102FD000002002E004F801BB401C4045FAD3002762
:102FE000564508D304F801BB04F801BB04F801BB43
:102FF00005F801BB2DE04B98864202D24A98805DCD
:1030000002E0311A4C98405C01218146024688005A
:1030100022FA00F000F00F00092801D9373000E053
:103020003030C1F1010C234604F80C00491EEED2E9
:103030009C1C04F801BBFCF731F9016811F8090088
:1030400010F03E0F01D0484600E02E2005F8010B9D
:10305000761C7F1C102FC3D30D2028700A206870A7
:1030600084F800B04099684641444331409100F0F3
:1030700053FD18B1002040905645A1D341B03046D1
:10308000BDE8F08F2DE9F041C6B090460846002516
:1030900005AE1C464C9F314645AA459500F0B8FF49
:1030A000002835D0072F27D2DFE807F004121B35A0
:1030B000424F5D004046FCF719F945990546084422
:1030C000FF2819D870182A464146FCF7EBF813E0A0
:1030D00045982368C0F5807130444246FCF7C0FF34
:1030E00009E06068009045982368C0F5807130441D
:1030F0004246FCF7B5FF0546294645A8FEF7E4FD24
:10310000459978B3B1F5807F3ED805A800F004FD5D
:1031100046B0BDE8F081D4E90101CDE90001459850
:103120002368C0F5807130444246FCF799FFE2E71E
:10313000201D07C88DE8070045982368C0F58071F9
:1031400030444246FCF78CFFD5E7201D0FC88DE8C0
:103150000F0045982368C0F5807130444246FCF763
:103160007FFFC8E710E004F1080001AD0FC885E853
:103170000F006068009045982368C0F58071304466
:103180004246FCF76DFFB6E70020C1E700487047F4
:103190008530020038B50D460093034B00215C6971
:1031A00013462A46A04738BDFC2D00202DE9FF47D5
:1031B0001C460023094F1646884681461D46009648
:1031C000CDE901450395D7F818C04246002148468D
:1031D000E0470346A042F2D3BDE8FF87FC2D002064
:1031E00000231A46FFF7D6BF08B5012300926A46AE
:1031F000FFF7D0FF08BD1CB5CDE9002302236A46C6
:10320000FFF7C8FF1CBD3EB5069C8DE81C000323DC
:103210006A46FFF7BFFF3EBD014AC2E9050170479C
:10322000FC2D002070B50120FFF78CFE040008D1B2
:10323000FFF7ACFF0546FFF781FE01462846FFF782
:10324000EBFF204670BD4058002800D00120704799
:1032500008B5002242504058009008BDD0F8040341
:10326000084000D0012070474058002800D00120BD
:10327000704708B5002242504058009008BD000039
:103280002DE9F04F2DED028B0C468FB0154656A15F
:103290000420FFF7A5FF2B46224663A10420FFF779
:1032A00085FF2078242808D063A10420FFF798FF29
:1032B0000FB0BDEC028BBDE8F08F2379E278A178E6
:1032C0006078FEF718FD8046237AE279A17960796B
:1032D000FEF711FD0546237BE27AA17A607AFEF7BC
:1032E0000AFD0646237CE27BA17B607BFEF703FDA3
:1032F00007464046FCF77CF89FED5D8B53EC182B9E
:10330000FCF704F8FCF798F803902846FCF770F8EF
:1033100053EC182BFBF7FAFFFCF78EF802903046BF
:10332000FCF766F853EC182BFBF7F0FFFCF784F87A
:1033300081463846FCF75CF853EC182BFBF7E6FFA8
:10334000FCF77AF88046207D0090E37CA27C617CCB
:103350000CA8FEF7C6FC207E0090E37DA27D617D77
:103360000DA8FEF7BEFC207F0090E37EA27E617E6A
:103370000EA8FEF7B6FC0E98FCF74BF806460F4673
:103380000D98FCF746F804460D460C98FCF741F8FA
:10339000CDE904014046FCF73CF882468B4648469E
:1033A000FCF737F8CDE900010298FCF732F88046C7
:1033B00089460398FCF72DF841EC100B08A853EC54
:1033C000102B80E8F000DDE90401CDE90601CDE92C
:1033D00004ABDDE90001CDE9020127A0CDE90089B8
:1033E000FCF72EFE64E700004150503A4445425538
:1033F000473A52656365697665642064617461204B
:1034000066726F6D20424C45204E55532E205772E8
:103410006974696E672064617461206F6E20554124
:1034200052542E0D0A0000004150503A4445425576
:10343000473A0D0A000000004150503A44454255B9
:10344000473A5265636569766564206461746120FA
:103450007061636B6574206D6973616C69676E651B
:10346000642E20446973636172642E200D0A00008B
:10347000000000000000103E25372E35662C253751
:103480002E35662C25372E35662C25372E35662CA5
:1034900025372E35662C25372E35662C25372E35CB
:1034A00066200D0A0000000010B550B103280CD1B1
:1034B0000220FEF7CFFA002807D0BDE81040FDF744
:1034C0002BBCBDE8104000F0C9BB10BD30B53E4D6F
:1034D00004460188688889B0212933D00CDC012991
:1034E0004BD0102914D011291CD0132934D100231A
:1034F0001A4685217FDF35E03B293AD0512940D05B
:1035000052292BD0562927D1A088132176DF29E014
:103510000720FEF79FFA08B1FDF7FEFBA088688040
:103520002AA109E00020FEF795FA08B1FDF7F4FBA7
:103530004FF6FF7068802BA109B00320BDE8304032
:10354000FFF74EBE002000900190A088002269463F
:103550008FDF34E0FDF7E0FB09B030BD00231A46F1
:103560001946A9DF0028F7D009B0BDE83040FDF7C3
:10357000D3BBA088132176DFF4E7A088002166DFA3
:10358000F0E71022A11D04A8FBF78CFE9DF8101097
:103590000029E1D09DF81800042803D0062801D0A6
:1035A0000528D9D102290DD05FF001008DF8000067
:1035B0004FF4C170ADF80400A0886946A8DF002868
:1035C000C8D1C9E70220F1E7F82500204150503A60
:1035D000494E464F3A436F6E6E65637465640D0ADB
:1035E000000000004150503A494E464F3A4469733A
:1035F000636F6E6E65637465640D0A000078002861
:1036000007D104483B21408876DF002801D0FDF730
:1036100083BB7047F82500207CB58E88027900EBCB
:10362000C605AC1D2A73C97B012902D0022904D129
:1036300001E0008800E04088208022886088824283
:1036400010D933461A490420FFF7D5FD21883046AA
:103650009EDF02004FF0010022D0112A22D015492E
:10366000FFF7C2FDA279E079824218D933461249A8
:103670000420FFF7C0FD002000900190287BADF8EA
:103680000000287BADF802000022694630468FDF3B
:10369000030004D0324609490120FFF7ACFD7CBD90
:1036A0006071DFE72071324605490420D8E7000049
:1036B000CC4A0200F04802006C4B0200044A0200AF
:1036C000004C020070B590B0054634226846091DD2
:1036D000FBF7E8FDBDF80040BDF8040005EBC406AB
:1036E000C2B27273234617490420FFF784FDBDF868
:1036F000062015A10420FFF777FDBDF804201CA1CA
:103700000420FFF771FDBDF80A2023A10420FFF774
:103710006BFDBDF808202AA10420FFF765FDA8690C
:1037200000280DD03049D1E90401CDE90D01ADF8F3
:103730003640707B8DF83800AA690DA9284690475D
:1037400010B070BDBC4B02006E72665F626C655F4C
:10375000676174743A44454255473A6D61785F72C7
:10376000785F6F63746574733A2025750D0A0000E5
:103770006E72665F626C655F676174743A4445425D
:1037800055473A6D61785F74785F6F6374657473E1
:103790003A2025750D0A00006E72665F626C655FE7
:1037A000676174743A44454255473A6D61785F7277
:1037B000785F74696D653A2025750D0A0000000078
:1037C0006E72665F626C655F676174743A4445420D
:1037D00055473A6D61785F74785F74696D653A201A
:1037E00025750D0A000000007C4602007CB5002211
:1037F000009201928A880D7A0C1D00EBC2062B46BE
:103800000D490420FFF7F7FC327BAA4200D32A4679
:10381000ADF80020ADF80220238808490420FFF706
:10382000EAFC2088002269468FDF020003D00449A9
:103830000120FFF7D9FC7CBD9C480200204B020010
:10384000A44902002DE9FC418E88CD8800EBC60416
:1038500007462B4632461A490420A41DFFF7CBFC2D
:10386000172D00D217252088A84200D8054665806C
:103870000020207100962388628812490420FFF7F7
:10388000C2FC21883046ADDF020003D00E49012082
:10389000FFF7AAFC6079002810D1B86900280DD084
:1038A0000A49D1E90201CDE90001ADF80260608862
:1038B000ADF80400BA69694638469047BDE8FC8116
:1038C0004C480200784A02004C4902007C46020043
:1038D0007CB58D88064600EBC5044A8934F8060F8E
:1038E000904200D802466280172A00D217226280D6
:1038F0002B460D490420FFF77EFCB06978B1607952
:1039000068B10A49D1E90001CDE90001ADF80250E2
:103910006088ADF80400B2696946304690470020DF
:10392000607120717CBD0000A04702007C4602004F
:103930000449084490F93000082801DB0120704751
:1039400000207047C42B00200449084490F930003F
:10395000082801D20120704700207047C42B0020A6
:1039600070B5012670044FF0E0210025C1F88001F8
:10397000084C4010C4F84803C4F8080366602F20C0
:10398000FEF7C0FEA660044C2F20A560FEF7BAFE2D
:10399000A57070BD001001406426002070B505467A
:1039A000C87D0C4600284FF4847128460AD0FFF7E2
:1039B0004FFCD5F81805627EE1688854607E401C93
:1039C000607670BDFFF744FCD5F8180570BD30B5C2
:1039D0008FB005461C216846FBF77DFC00249DF84E
:1039E0000000019440F00C008DF800000394049452
:1039F0000594069428788DF836000220ADF834003E
:103A00000C949DF83000142120F00F00401C20F091
:103A1000F00010308DF830009DF8310020F00F00DC
:103A2000401C20F0F00010308DF831009DF832007D
:103A300020F00600801C20F0180040F001008DF8F6
:103A4000320007A8FBF747FC0DA807900CA80890C8
:103A50000120ADF824009B20ADF82640ADF82800E9
:103A6000688805F10C0307AA6946A2DF0FB030BDD4
:103A70001FB501238DF800308DF808100192D0E9B0
:103A80000012684690471FBD10B5044600684FF409
:103A90009271FFF7DDFB4FF484712068FFF7D8FBCC
:103AA00020680121016010BD10B50446FCF700FB41
:103AB00040B1002C09DA04F00F0000F1E02090F88A
:103AC000140D06E042F2010010BD04F1E02090F870
:103AD00000044109082914D299B1012911D00429FF
:103AE0000FD005290DD00B480122816861B1610911
:103AF00050F8213004F01F04A240134340F8213055
:103B000005E042F2020010BD2046FBF7C0FF002096
:103B100010BD0000882D00202DE9F041002507464A
:103B20004FF001080C460A26791922460020FCF7BE
:103B30001DF80544241A08B9761E01D0002CF3D1D3
:103B40004046BDE8F08100002DE9F0410746806A5B
:103B500014468846C8B3002531E000BFB96A05EBBA
:103B6000450001EB8006B088801CFE2802D90C209D
:103B7000BDE8F0812288401C08F802002088162247
:103B8000401C80B2208008F800202088401C80B2B1
:103B9000208000EB0801308800F091FC2188084467
:103BA00080B22080B28842B1B16871B14044FBF765
:103BB00079FB2088B188084420806D1CEDB297F80D
:103BC0002C00A842CAD80020D2E7FFE70720CFE7A1
:103BD00010B50F490F4C0A8A42818A8A828109787E
:103BE00091B1A17981B9217A71B10221017208499B
:103BF00004202031C870064800212030FDF77CFAEF
:103C0000002804D1052000E00320A070002010BD92
:103C1000C02A00201C26002010B50E490E4C0A8B2D
:103C200042818A8B82810A78042182B1A27972B999
:103C3000227A62B10222027206482030C17000214D
:103C4000FDF75AFA002804D10620A07000E0A17008
:103C5000002010BDC02A00201C26002010B5002026
:103C6000FDF7F8FE08B1FDF757F8FDF755FE08B16E
:103C7000FDF752F832DF002803D0BDE81040FDF711
:103C80004BB810BD08B5034A0092002102600846F7
:103C900008BD0000F825002018B103490861002084
:103CA00070470E20704700009026002038B502684B
:103CB000054612A104200092FFF796FA684660DFDD
:103CC00004462868009A90420FD014A10220FFF702
:103CD0008BFA4FF08050D0F80C010099800200F16F
:103CE0000050421A1AA1022003E024B1224625A165
:103CF0000120FFF779FA204638BD00005344483AC6
:103D000044454255473A52414D20737461727420C4
:103D1000617420307825782E0D0A00005344483A0B
:103D20005741524E494E473A52414D207374617289
:103D3000742073686F756C642062652061646A75B5
:103D40007374656420746F20307825782E0D0A0016
:103D50005344483A5741524E494E473A52414D20FA
:103D600073697A652073686F756C64206265206181
:103D7000646A757374656420746F20307825782EBA
:103D80000D0A00005344483A4552524F523A736468
:103D90005F626C655F656E61626C65282920726583
:103DA0007475726E656420756E6578706563746590
:103DB000642076616C75653A20307825782E0D0A7E
:103DC00000000000FCF778BF2DE9F041074619B16B
:103DD00088074FF0000402D00720BDE8F081114DA4
:103DE0004FF0E0200126E9606A806B60D0F80001A6
:103DF00010F0010F03D034460020FBF732FE0A49D1
:103E0000384610DF070005D014B10020FBF73FFE55
:103E10003846E2E72E70FEF7DFFCBDE8F0411620E1
:103E2000FFF742BE90260020C53D02000148007801
:103E300070470000902600202DE9F84F1D4C00250A
:103E40006846D4E901A6FEF7A5F8002738B3002399
:103E5000009A61681CE0D1F800C00846944503D977
:103E6000ACEB02020A6015E0A2EB0C0263440760AF
:103E7000D0F80CC0C1698146BCF1000F08D006EB38
:103E8000030828F07F48C0E9018CC9F81C5005469A
:103E90000029E0D128466160FEF7EEF903E02846EC
:103EA000FEF7EAF910B15046FDF77AFFE770BDE87A
:103EB000F88F0000642600200D4B10B5596831B111
:103EC00002680C68A24204D8A21A0A60C161586054
:103ED00010BD0B4603E00B46C969121B21B10C68EB
:103EE0009442F8D3A41A0C600260C161D86110BD7D
:103EF000642600202DE9F041144E77683D462C469B
:103F000003E0844204D02546E469002CF9D11BE08B
:103F1000D4B1A5420BD1F869706040B90C490120B9
:103F200088600021B160F0702F20FEF7EBFB216864
:103F3000E069E86110B1026811440160706887426D
:103F400002D00120BDE8F0810020FBE764260020BC
:103F5000001001407CB5064600240D468DF8004057
:103F60006846FDF72FF801A800F0DEFA70B1057081
:103F7000094946609DF8040048709DF80000FDF76F
:103F800045F81420FBF78EFD20467CBD04249DF8E7
:103F90000000FDF73BF8F7E75C2C00202DE9F0412D
:103FA000194D6C68002C2CD0184800270068A968AF
:103FB000B846401A20F07F462068B0420CD821460F
:103FC000361A0744E469087C20B181F810808869BA
:103FD00049698847002CEFD129786878814206D159
:103FE000401CC0B26870022801D185F801800648E3
:103FF00069780C3040F82170BDE8F0411420FBF7DF
:1040000051BDBDE8F0810000642600200415014088
:1040100010B5144602004FF001000CD0084613689A
:1040200006A24FF48071FCF71BF801462046BDE85C
:104030001040FDF749BE0021216010BD5B253038DE
:10404000645D000070B50C4605464FF48E71FFF7B5
:10405000FFF8A18AA068415CA08A401CA082C5F834
:104060001C1570BD30B58FB00024054607949DF82F
:104070001C001C2120F00F00401C20F0F00010302C
:104080008DF81C009DF81D0020F00F00401C20F052
:10409000F00010308DF81D009DF81E0020F0060085
:1040A000801C8DF81E006846FBF715F99DF800008E
:1040B000019440F010008DF8000007A8CDE90440FD
:1040C0000394069428788DF83A000320ADF8380060
:1040D0000D949DF83400142120F00F00401C20F0B6
:1040E000F00010308DF834009DF8350020F00F00FE
:1040F000401C20F0F00010308DF835009DF836009F
:1041000020F00600801C20F0180040F001008DF81F
:10411000360008A8FBF7DFF80EA808900DA8099054
:104120000120ADF828009B20ADF82A40ADF82C0006
:1041300068882B1D08AA6946A2DF0FB030BD1FB5E5
:1041400000228DF800208DF8081081680191827599
:10415000D0E90012684690471FBD000070B5017895
:1041600041B1012901D002292FD14068BDE870403A
:10417000FCF7D2BD164C154D20782844FCF790FE74
:104180002078401CC0B22918207011F8011C0A299F
:1041900002D0A188884218D30EA10420FFF720F88E
:1041A00023780A4A16A10420FFF700F8074922786D
:1041B00001F52770FDF750FA082804D01128F5D032
:1041C00008B1FCF7A9FD0020207070BD80270020F9
:1041D000F82500204150503A44454255473A52652F
:1041E00061647920746F2073656E6420646174610A
:1041F000206F76657220424C45204E55530D0A00C3
:104200004150503A44454255473A0D0A00000000DB
:104210007CB50178244D81B301290BD002292BD123
:104220008DF80010C068691C01900122C81DFEF7BE
:104230003BFC2EE0406801781C48FCF793FD1B4CCA
:10424000012618B18DF80060019006E0A068E168D1
:10425000814205D000208DF80000696868468847D3
:10426000A068E168081AA188884207D80E4901228F
:10427000491CC81DFEF718FC7CBD01E0AE70FBE7D1
:104280000A4809491030FCF752FD30B103208DF87F
:104290000000696868468847EEE70349012201F19A
:1042A0000800FEF71DFDE7E778260020682D0020B6
:1042B0002DE9FF470C4605464FF40071FEF7CEFF8F
:1042C00001274FF40178002618B34FF4927949463C
:1042D0002846FEF7B8FFE0B149462846FEF7B8FF8A
:1042E000C5F80883A07E00B96F6002208DF8000039
:1042F000D5F88004C5F880040390E07D8DF80800AF
:10430000E0680190E6752676D4E900126846904789
:1043100027E004212846FEF7A1FF10B34FF4847173
:104320002846FEF790FFE0B121462846FFF736FB0E
:10433000E07D617E884214D1207E38B1617EE268E2
:10434000E0752069E0602676667607E0A07E00B919
:104350006F60C5F80883E675617EE2682046FFF766
:1043600087FB4FF48E7841462846FEF76CFF88B1F4
:10437000A08AA17D884204D221462846FFF762FE2A
:1043800008E041462846FEF763FFA17D11B12046B3
:10439000FFF7D5FE4FF4A27841462846FEF753FFBB
:1043A000002812D041462846FEF752FFA07E00B1F9
:1043B0002F60E07D002808D0E675617EE26804B0D9
:1043C0002046BDE8F047FFF753BBBDE8FF872DE966
:1043D000FF410C464FF4927705463946FEF744FFFD
:1043E0000026C0B139462846FEF743FF02208DF86B
:1043F0000000D5F88004C5F880040390D5F83C058A
:104400008DF80800E0680190E6752676D4E9001280
:104410006846904724E04FF4887739462846FEF7EF
:1044200023FFE8B139462846FEF723FFD5F83C05BF
:10443000C1B2E07D884213D1207E60B1E268D5F838
:10444000000220F02000C5F80002207EE0752069FF
:10445000E060267601E0E675E2682046FFF708FB9B
:104460004FF4A27739462846FEF7FEFE68B139467A
:104470002846FEF7FEFEE07D38B1E675D5F83C052E
:10448000E268C1B22046FFF7F3FA4FF49076314666
:104490002846FEF7E9FE00280FD031462846FEF7F1
:1044A000E8FEA07D002808D0D5F84C0504B0C1B2C4
:1044B0002046BDE8F041FFF742BEBDE8FF8108702D
:1044C000000A48700220704738B515494888A0F5A1
:1044D0007F42FF3A23D04A78124C521CD2B24A7023
:1044E000237B93420AD3091D75DF002817D0A169E9
:1044F000002914D001B0BDE83040084700254D70B8
:10450000217C29B13B2176DF10B1A16901B1884737
:104510006169002903D08DF800506846884738BD8E
:104520003C260020942B00200A494A788B78521CA4
:10453000D2B2934200D100220B78934201D10020E5
:1045400070470270487800EB400001EBC000001D8E
:10455000704700005C2C00202DE9FC411646DDE987
:104560000854CDE900541F468046022200F00CF8A2
:10457000002807D1CDE900543B4610223146404681
:1045800000F002F8BDE8FC812DE9FC5F0026DDE9C2
:104590000C4B994692468E4680462788354630E039
:1045A000D8F80400002200EB8500694600680190FD
:1045B00001A864DF002830D19DF8000050451FD1CC
:1045C0000EB1002100E0022122880844111859454B
:1045D00022D846B9521C90B2208009F800E0208809
:1045E000401C20800126218801A801EB09026946B0
:1045F00064DF002811D120889DF800100844208035
:104600006D1CB8F80000A842CADC56B12088C01B57
:10461000401E80B2FF2802D90C20BDE8FC9F09F89B
:1046200007000020F9E70000010000070800000073
:104630000600000005000000070000000000000068
:1046400000E0D701111213140D0E0F10542A002090
:10465000742A0020A02A00200D000300391902004E
:104660000E000300391902000F000300391902007F
:104670001000030039190200742B0020770A000093
:1046800000000000770A0000000000007ADA000055
:10469000000000009ECADC240EE5A9E093F3A3B558
:1046A0000000406E000000503C2C00200300000081
:1046B000FFFFFFFFFFFFFFFFFFFFFFFFFFFFFFFF0A
:1046C00000000000000000000000D601070100000B
:1046D0000040404040404040404041414141414015
:1046E00040404040404040404040404040404040CA
:1046F0004005020202020202020202020202020259
:10470000022020202020202020202002020202025D
:1047100002029090909090901010101010101010B5
:1047200010101010101010101010101002020202C1
:104730000202888888888888080808080808080805
:104740000808080808080808080808080202020201
:1047500040000000D14602004150503A44454255C5
:10476000473A415454204D54552065786368616E32
:10477000676520636F6D706C657465642E2063657A
:104780006E7472616C203078257820706572697063
:10479000686572616C20307825780D0A0000000091
:1047A0006E72665F626C655F676174743A4445421D
:1047B00055473A415454204D5455207570646174E6
:1047C000656420746F202575206279746573206F8D
:1047D0006E20636F6E6E656374696F6E203078252E
:1047E000782028726573706F6E7365292E0D0A002C
:1047F0006E72665F626C655F676174743A444542CD
:1048000055473A52657175657374696E6720746FA8
:104810002075706461746520415454204D545520B6
:10482000746F202575206279746573206F6E206324
:104830006F6E6E656374696F6E20307825782028FE
:104840007265747279292E0D0A0000006E72665F1F
:10485000626C655F676174743A44454255473A50EB
:10486000656572206F6E20636F6E6E656374696F2D
:104870006E20307825782072657175657374656473
:1048800020616E20415454204D5455206F662025E0
:10489000752062797465732E0D0A00006E72665F72
:1048A000626C655F676174743A44454255473A509B
:1048B000656572206F6E20636F6E6E656374696FDD
:1048C0006E20307825782072657175657374656423
:1048D00020612064617461206C656E677468206F6C
:1048E000662025752062797465732E0D0A0000001C
:1048F0006E72665F626C655F676174743A455252AE
:104900004F523A73645F626C655F67617474635F92
:1049100065786368616E67655F6D74755F726571F8
:104920007565737428292072657475726E656420CC
:10493000756E65787065637465642076616C756505
:1049400020307825782E0D0A000000006E72665F18
:10495000626C655F676174743A4552524F523A73A4
:10496000645F626C655F67617474735F65786368C8
:10497000616E67655F6D74755F7265706C7928290B
:104980002072657475726E656420756E65787065E9
:10499000637465642076616C756520307825782EA7
:1049A0000D0A00006E72665F626C655F6761747409
:1049B0003A4552524F523A73645F626C655F676169
:1049C000705F646174615F6C656E6774685F757059
:1049D00064617465282920287265706C79292072B9
:1049E000657475726E656420756E65787065637444
:1049F00065642076616C756520307825782E0D0A07
:104A0000000000006E72665F626C655F67617474BF
:104A10003A4552524F523A73645F626C655F676108
:104A2000705F646174615F6C656E6774685F7570F8
:104A3000646174652829202872657175657374290D
:104A4000206F6E20636F6E6E656374696F6E2030C9
:104A50007825782072657475726E656420756E6550
:104A6000787065637465642076616C756520307854
:104A700025782E0D0A0000006E72665F626C655F1D
:104A8000676174743A44454255473A55706461749D
:104A9000696E6720415454204D545520746F202571
:104AA0007520627974657320286465736972656422
:104AB0003A20257529206F6E20636F6E6E656374D2
:104AC000696F6E20307825782E0D0A006E72665F51
